:020000040800F2
:1020000000C000203131010801D9000803D90008BF
:1020100005D9000807D9000809D900080000000008
:102020000000000000000000000000000BD90008C4
:102030000DD90008000000000FD9000811D90008D0
:102040008931010889310108893101088931010884
:1020500089310108893101081DD9000829D90008F2
:1020600035D9000849D9000855D9000821BA000817
:102070008931010889310108893101088931010854
:102080008931010889310108893101088931010844
:1020900089310108893101088931010861D90008B5
:1020A0008931010889310108893101088931010824
:1020B0008931010805D000086DD600088931010872
:1020C0008931010889310108893101088931010804
:1020D0008931010889310108D1DB0008E1DB000802
:1020E0008DDA000889310108893101088931010838
:1020F00089310108893101088931010889310108D4
:1021000089310108893101088931010889310108C3
:1021100089310108893101088931010889310108B3
:1021200089310108893101088931010889310108A3
:10213000000000000000000000000000000000009F
:10214000000000000000000000000000000000008F
:10215000000000000000000000000000000000007F
:10216000000000000000000000000000000000006F
:10217000000000000000000000000000000000005F
:10218000000000000000000000000000000000004F
:10219000000000000000000000000000000000003F
:1021A000000000000000000000000000000000002F
:1021B000000000000000000000000000000000001F
:1021C000000000000000000000000000000000000F
:1021D00000000000000000000000000000000000FF
:0421E0005FF8E0F1D3
:1021E8000348044B834202D0034B03B1184770479E
:1021F8001005002010050020000000000548064BCF
:102208001B1AD90F01EBA301491002D0034B03B1EC
:102218001847704710050020100500200000000036
:1022280010B5064C237843B9FFF7DAFF044B13B116
:102238000448AFF300800123237010BD100500206F
:10224800000000008C31010808B5044B1BB104499B
:102258000448AFF30080BDE80840CFE70000000065
:10226800140500208C3101080CB470B50C4600250B
:102278006FF000469CB00A4A20AB059253F8042B35
:1022880002A9CDE901341B9504960796069400F03F
:10229800BFF9029B1D701CB0BDE8704002B07047CA
:1022A8000802FFFF0EB470B504466FF00046002523
:1022B8009DB00B4A21AB0B49106853F8042B0591CC
:1022C80002A9CDE90134049607961B95069400F0FF
:1022D8009FF9029B1D701DB0BDE8704003B07047A8
:1022E800000000200802FFFF20F0030110F00300A7
:1022F800C0F1000051F8043B00F1040C4FEACC0C8B
:102308006FF000021CBF22FA0CF213434FF0010CCD
:102318004CEA0C2C4CEA0C4CA3EB0C0222EA03020C
:1023280012EACC1204BF51F8043B0430F4D0C2F1D5
:10233800000102EA0102B2FA82F2C2F11F0200EBC6
:10234800D2007047830710B5044610D10268A2F185
:10235800013323EA020313F0803F08D150F8042F19
:10236800A2F1013323EA020313F0803FF6D0037889
:102378001BB110F8013F002BFBD100F003F82046F9
:1023880010BD00BF80EA0102844612F0030F4FD14E
:1023980011F0030F32D14DF8044D11F0040F51F82C
:1023A800043B0BD0A3F101329A4312F0803F04BFE3
:1023B8004CF8043B51F8043B16D100BF51F8044BCC
:1023C800A3F101329A4312F0803FA4F101320BD1FC
:1023D8004CF8043BA24312F0803F04BF51F8043B81
:1023E8004CF8044BEAD023460CF8013B13F0FF0FDE
:1023F8004FEA3323F8D15DF8044B704711F0010F11
:1024080006D011F8012B0CF8012B002A08BF7047E1
:1024180011F0020FBFD031F8022B12F0FF0F16BFD8
:102428002CF8022B8CF8002012F47F4FB3D17047A0
:1024380011F8012B0CF8012B002AF9D1704700BFC5
:102448002DE9F0471D468F680C46AF4216460B68CB
:1024580036D8B1F90CC01CF4906F0ED13D46184621
:1024680031462A4600F014FE0020A368DF1B2368CB
:10247800A7602B442360BDE8F0874A69096902EB2D
:1024880042025F1A02EBD2726B1C52103B44934219
:1024980092BF914699461A461CF4806F804611D027
:1024A800114600F017FD824600B33A46216900F054
:1024B800B3FFA38923F4906343F08003A38105E06D
:1024C8002F46CCE701F0B6F8824658B10AEB07036D
:1024D800A9EB0707A760C4F810A02F46C4F814900A
:1024E8002360BCE74046216900F074FD0C22A389F3
:1024F8004FF0FF3043F04003C8F80020A381BAE74B
:102508002DE9F04F936883B0924617680190002B2D
:1025180076D04FF0000B0C465D468B680A6848E0A1
:10252800B4F90CC01CF4906F2FD0D4E90403A2EBCB
:10253800000803EB430202EBD27208F101015210CA
:102548002944914292BF914689460A461CF4806FFD
:1025580039D01146019800F0BDFC064600283DD050
:102568004246216900F058FFA28922F4906242F0A5
:102578008002A28106EB0800A9EB08022661A846A2
:102588002E46A2602060C4F814903246594600F0E6
:102598007FFDDAF80810A3682268A3EB0803324429
:1025A800491BA3602260CAF8081049B3D7E900B5EF
:1025B800083798461046002DF8D09D421E46AFD2E7
:1025C800A8462E46E1E70146019801F033F8064691
:1025D8000028CFD10198216900F0FCFC0C21A389C7
:1025E800019D43F0400329600022A3814FF0FF3092
:1025F8000023CAF80820CAF8043003B0BDE8F08FF9
:1026080000200023CAF8043003B0BDE8F08F00BFF3
:102618002DE9F04F1C468B8989461D068246934654
:102628009DB003D50B69002B00F0EE80002343F228
:10263800200209939BF8003001277C4E0394ADF8E3
:102648002920002B71D05D4603E015F8013F002BCF
:1026580073D0252BF9D1B5EB0B0471D12A78002A58
:1026680063D000234FF0FF320135CDE905230493F1
:1026780007938DF853301A9306E02546049B801B78
:1026880007FA00F0034304932C46052214F8011BB3
:10269800304601F085FBA3460028EED1049BD906FD
:1026A80044BF20228DF853201A0748BF2B222978CF
:1026B80048BF8DF853202A294FD1039A1168043254
:1026C800002903927BDB079169782E295BD0584C4F
:1026D8000322204601F064FB38B14022049B001B12
:1026E800824013430BF1010B04931BF8011B0622D4
:1026F80050488DF8281001F053FB002865D04E4B48
:10270800002B55D003A900914A4650464B4B04A9CB
:10271800AFF300808046B8F1FF3F06D0099B4344E1
:1027280009939BF80030002B8DD1B9F80C305B066B
:1027380079D409981DB0BDE8F08FB5EB0B04F4D03F
:1027480023465A4649465046FFF77AFE0130ECD0F8
:10275800099B2A782344099381E7A1F13002092AC9
:1027680088BFAB46B1D8079B00E00134217803EB62
:10277800830302EB4303A1F13002092AF5D92E297C
:10278800A3460793A3D19BF801102A2927D1039BBD
:102798000BF102001A680433002A0393B8BF4FF004
:1027A800FF339BF8021005928346B8BF05938EE766
:1027B800039B073323F0070308330393AEE749422B
:1027C80043F00203079104937EE703A900914A4668
:1027D80050461A4B04A900F0F1FF80469BE70023FE
:1027E800A1F13002092A0BF1010B05933FF66FAFF7
:1027F8001BF8011F03EB830302EB4303A1F1300233
:10280800092AF5D9059362E7402100F063FBC9F86E
:102818000000C9F8100018B14023C9F8143005E7C2
:102828000C23CAF800304FF0FF3083E7644F0108EB
:102838006C4F0108704F010800000000492400088F
:1028480070B50F4B0F4DAB42A3EB050607D0002424
:10285800B61055F8043B01349847A642F9D810F051
:1028680091FC094D094B5E1BAB424FEAA60606D008
:10287800002455F8043B01349847A642F9D870BDA6
:10288800F45F0108F45F0108F45F0108F85F0108CC
:102898000EB44FF40172F0B500269CB021AD55F886
:1028A800047BADF814201B9602900690FFF71CFDE0
:1028B8004FF6FF7204460A4B0A49ADF816200B93EF
:1028C8003A462B46086802A90F9614960195039478
:1028D800079401F065FF1CB0BDE8F04003B07047F5
:1028E80089430008000000200CB44FF401732DE95F
:1028F800F04100269CB022AD0746084655F8048BE7
:10290800ADF81430029106911B96FFF7EDFC4FF6D7
:10291800FF7304460949ADF816300B914246384614
:102928002B4602A90F96149601950394079401F07B
:1029380037FF1CB0BDE8F04102B07047894300087A
:10294800036A70B506460D468468002B38D0A38903
:102958001B0714D5236993B1013DA36815F8011F1E
:10296800013BA360D9B1002B04DAA2699A420FDCBB
:102978000A290DD023685A1C22601970EDE72146F8
:10298800304600F0E7FC0028E6D04FF0FF3070BD7D
:102998002246304601F082FC0130DED1F5E7002BFB
:1029A80008DA22460A21304601F078FC0130ECD0E2
:1029B8000A2070BD0A222368591C21601A70F7E7A3
:1029C80000F0FEF8C3E700BF024B01461868FFF7A6
:1029D800B7BF00BF0000002003460A460249086846
:1029E800194600F031BA00BF0000002000207047EF
:1029F800024A0349034800F08BBC00BF5000002086
:102A0800CD2D0008040000200C4B416810B59942F8
:102A1800044601D000F0D6F9A168094B994202D0CA
:102A2800204600F0CFF9E168064B994204D02046D1
:102A3800BDE8104000F0C6B910BD00BF2C0500204D
:102A480094050020FC050020002070472DE9F8437C
:102A580000250423294C2A490822C4F8381104F116
:102A68005C002946DFF89C90DFF89C80274F284EB1
:102A7800C4E90335C4E90055C4E90555A560656690
:102A880000F0C6F8234B0822294604F1C400636706
:102A9800C4E90849C4E90A87C4E91A55C4E91E55B6
:102AA80026632567C4F8CC50C4F8805000F0B0F80D
:102AB800194B2946C4F8DC30082204F1680304F5F0
:102AC8009670C4F88830C4E92398C4E92576C4E927
:102AD8003455C4E93855C4F8D850C4F83451C4F84A
:102AE800E85000F095F804F1D003C4E93D98C4E932
:102AF8003F76C4F8F030BDE8F88300BF2C0500200D
:102B0800F9290008654300088D430008CD430008F3
:102B1800F14300080900010012000200F8B5254B36
:102B28000646D3F83831002B3CD0234FD7E901347F
:102B3800013B04D51DE05A1C04F1680419D0B4F90E
:102B48000C50013B002DF6D11C4B08222946C4E944
:102B58000155C4E90455E36065662560A56104F183
:102B68005C0000F055F8C4E90D55C4E9125520463B
:102B7800F8BD3D680DB12F46D8E74FF4D671304601
:102B880000F0A8F9044680B10423056029462546CB
:102B98000C304FF4D072A060636000F039F83C60EC
:102BA8002F46C3E7FFF752FFBFE70C2338603360B7
:102BB800DDE700BF2C050020500000200100FFFFCA
:102BC800036A03B17047044B044AD3F838310262F0
:102BD800002BF7D13AE700BF2C050020112A000886
:102BE800704700BF704700BF0020024A024900F04A
:102BF8008FBB00BF50000020F52900080020024AC2
:102C0800024900F085BB00BF50000020512A00088F
:102C180070B5860747D0541E002A3ED00346CAB274
:102C280001E0013C39D303F8012B9D07F9D1032CAE
:102C38002CD9CDB205EB05250F2C1A4605EB054519
:102C480034D9A4F1100C2CF00F0603F1100EB64481
:102C58004FEA1C1CC2E90055C2E902551032724500
:102C6800F8D10CF1010214F00C0F03EB021204F07E
:102C78000F0C13D0ACF1040323F003030433134403
:102C880042F8045B9342FBD10CF003042CB1C9B2A7
:102C98001C4403F8011BA342FBD170BD64461346D4
:102CA800002CF4D1F9E703461446C0E7A446E1E74F
:102CB800F8B5B1F90C300C461E07074639D44A68F6
:102CC800002A53DDE56A002D31D000223E683A60C3
:102CD80013F48052216A55D101233846A847451C70
:102CE800024663D0B4F90C30E56A216A580705D565
:102CF8006368D21A636B0BB1236CD21A002338466F
:102D0800A847421C40D00022236962602360A3893F
:102D1800DB0400D56065616B3E6041B104F144039A
:102D2800994202D0384600F055F900236363002029
:102D3800F8BD0E69002EFAD09B0718BF00230D6856
:102D480008BF4B690E60AD1B8B600CE02B4632460A
:102D5800D4F828C03846216AE047B0F1000CA5EB4A
:102D68000C05664406DD002DF0DCE0E70A6C002A5D
:102D7800A8DCDCE7B4F90C3043F040034FF0FF3037
:102D8800A381F8BD626DB1E73968B4F90C301D292B
:102D9800F2D80B4ACA40D507EED5002262602269F4
:102DA8002260DA04B7D50029B4D0B4E73B68002B19
:102DB80098D01D2B01D0162BDCD13E60B7E700BFA1
:102DC800010040200B69B3B110B5044682B008B1C8
:102DD800036A5BB1B1F90C3013B9002002B010BD21
:102DE800204602B0BDE81040FFF762BF0191FFF72F
:102DF800E7FE0199EEE70020704700BFB8B138B58B
:102E08000D4A0369044615682BB10DB12B6A53B1FD
:102E1800B4F90C300BB9002038BD21462846BDE86E
:102E28003840FFF745BF2846FFF7CAFEF0E7034AD8
:102E38000349044800F06CBA00000020500000204C
:102E4800CD2D00080400002070B5A1FB025454B930
:102E5800294600F03FF8064618B12A462146FFF7F2
:102E6800D7FE304670BD0C2200260260F9E700BF8D
:102E7800826800F08DBB00BF024B0146186882686B
:102E880000F086BB0000002070B5114E054633687F
:102E98000C46BBB12146284601F04EFA431C0146B8
:102EA8000CD0C41C24F00304A04205D02846611AA3
:102EB80001F042FA013001D0204670BD4FF0FF34D6
:102EC800204670BD194601F037FA3060E2E700BFCE
:102ED800680600202DE9F843CD1C25F003050835C8
:102EE8000C2D38BF0C25002D064618DBA94216D834
:102EF800DFF8DC8000F0A4FDD8F80420A2B1144665
:102F080003E0636822467BB11C4623685B1BF8D448
:102F18000B2B1FD89442636854D053600CE00C23E9
:102F280033600020BDE8F88329463046FFF7ACFF40
:102F3800431C044619D00560304600F083FD04F1B7
:102F48000B00231D20F00700C21A1CBF1B1AA35038
:102F5800BDE8F88361199442256014BF5160C8F830
:102F68000410635163684B60E6E7D8F804701FB338
:102F78003C467F68002FFBD123683946304604EB76
:102F8800030901F0D9F9814516D123683046ED1AB5
:102F98002946FFF779FF01300ED02368D8F80420BE
:102FA8002B442360536883B1A34203D01A465B685D
:102FB8009C42FBD10023B0E70C233046336000F07D
:102FC80041FDAEE7C8F80430B6E7C8F80470B3E7C7
:102FD80068060020002950D038B551F8043C0C1F71
:102FE800002BB8BFE418054600F02AFD274A1368ED
:102FF8002BB1A3420CD92168601883422CD02846F3
:1030080063601460BDE8384000F01CBDA3420FD8CF
:103018001A465B68002BF9D111685018844217D002
:103028002CD3636054602846BDE8384000F00ABDE0
:1030380011685018A04214D020D821686018834223
:10304800EFD118685B680844C4E900035460EAE7F4
:1030580023680B441360E6E718685B68084420603F
:10306800CDE720680144501883421160DBD1D3E9D1
:1030780000040144C2E90014D5E770470C23284630
:103088002B60BDE8384000F0DDBC00BF6C060020B6
:1030980088420ED98B1883420BD900EB020C002A08
:1030A8006DD0624613F801CD994202F801CDF9D1ED
:1030B80070470F2A0FD8034602F1FF3C002A5ED062
:1030C8000CF1010C013B8C4411F8012B614503F80C
:1030D800012FF9D1704740EA01039B0750D1A2F1B3
:1030E800100370B501F1200C23F00F0501F1100E4B
:1030F80000F11004AC441B095EF8105C0EF1100ED0
:1031080044F8105C5EF81C5C103444F81C5C5EF8F3
:10311800185C44F8185C5EF8145CE64544F8145CE6
:10312800EAD1013312F00C0F01EB031102F00F0486
:1031380000EB031328D08E46043C24F003064FEA24
:10314800940C1E441C1F5EF8045B44F8045FB442F0
:10315800F9D10CF1010402F0030203EB840301EB43
:10316800840102F1FF3C4AB10CF1010C013B8C4493
:1031780011F8012B614503F8012FF9D170BD704793
:10318800034602F1FF3C9BE72246EAE70A220021B8
:1031980000F0B0B80A23002200F09CB8242B2DE9D7
:1031A800F84F42D8012B40D01F468E4680464848EB
:1031B80075461EF801BB10F80B4014F00804F7D14F
:1031C800BBF12D0F6FD06FF00049BBF12B0F04BF7F
:1031D8009EF800B005F1020E7BBBBBF1300F4CD05E
:1031E8000A273B460025B9FBF7F6284607FB169A3F
:1031F80005E03BD0012507FB00C01EF801BBABF181
:10320800300CBCF1090F06D9ABF1410CBCF1190F18
:103218001AD8ABF1370C63451FDDB5F1FF3FECD091
:103228008642E6D24FF0FF35E7E701F009FE1622A5
:10323800034600201A60BDE8F88F102BD2D1BBF1ED
:10324800300F23D01F46CDE7ABF1610CBCF1190F4D
:1032580003D8ABF1570C6345DFDC6B1C2BD054B99A
:10326800002AE8D085BB1160BDE8F88FE245C1DAD5
:103278004FF0FF35C1E74042F2E79EF8003003F017
:10328800DF03582B08D008273B46ABE79EF8000021
:1032980000F0DF005828D5D110279EF801B03B4632
:1032A8000EF1020E9EE79EF800B04FF0004901248F
:1032B80005F1020E90E72223C8F8003032B10EF172
:1032C800FF3148461160CFE78146F8E74846B2E744
:1032D800D931010862E700BF8C4600B5864613461F
:1032E800034A714610685DF804EB624656E700BF72
:1032F800000000208C4600B586461346034A7146F6
:1033080010685DF804EB624648E700BF0000002043
:103318002DE9F8434FF0000980460F461646D6E9D6
:103328000154013D10D4A389012B08D9B4F90E30FA
:10333800013304D021464046B84749EA0009013D17
:103348006B1C04F16804EED13668002EE7D14846BC
:10335800BDE8F88338B52F4B05461B680C4613B1FA
:103368001A6A002A4BD0B4F90C3018071CD5226908
:1033780022B313F0010107D000206169A06049421F
:10338800A1613AB1002038BD980758BF6169A160B2
:10339800002AF7D1190658BF1046F4D543F0400368
:1033A800A3814FF0FF3038BDD9062CD55A0712D467
:1033B800226943F00803A381002ADAD103F42071BB
:1033C800B1F5007FD5D02146284600F083FBB4F93B
:1033D8000C302269CDE7616B51B104F1440291428E
:1033E80004D02846FFF7F6FDB4F90C3000226263DA
:1033F8000021226923F02403C4E90021D9E71846F3
:10340800FFF7DEFBAFE7092243F040032A60A38100
:10341800C7E700BF00000020844641EA000313F01C
:10342800030349D1403A23D30B6803604B684360D8
:103438008B688360CB68C3600B6903614B69436128
:103448008B698361CB69C3610B6A03624B6A436210
:103458008B6A8362CB6AC3620B6B03634B6B4363F8
:103468008B6B8363CB6BC36340304031403ADBD214
:1034780030320BD30B6803604B6843608B68836002
:10348800CB68C36010301031103AF3D20C3205D338
:1034980051F8043B40F8043B043AF9D2043208D00E
:1034A800D2071CBF11F8013B00F8013B01D30B8880
:1034B80003806046704700BF082A13D38B07B1D03A
:1034C80010F00303AED0C3F10403D21ADB071CBF0C
:1034D80011F8013B00F8013BA4D331F8023B20F876
:1034E800023B9FE7043AD9D3013A11F8013B00F8AF
:1034F800013BF9D20B7803704B7843708B7883705B
:1035080060467047024B01461868FFF7E3BC00BFEE
:1035180000000020024B01461868FFF75BBD00BFA2
:103528000000002040EA01039B0710B524D1032ABC
:1035380022D98E468446DEF800407146A4F1013354
:1035480023EA040313F0803F0EF1040E15D1043A68
:10355800032A4CF8044BEED8714601F1FF3E52B1F4
:1035680063461EF8011F541E03F8011B41B1224691
:103578009C46002AF4D110BD844601F1FF3EEEE7D7
:103588009444002CF7D003F8011B6345FBD110BD10
:1035980030B50546144683B008B1036ACBB1A368B9
:1035A800013B002BA36012DAA269934208DBC8B280
:1035B8000A2805D023685A1C2260197003B030BD50
:1035C8002246284603B0BDE8304000F067BEC8B2C6
:1035D800F0E70191FFF7F4FA0199E0E7144B70B5B1
:1035E8001E6805460C460EB1336AE3B1A368013B79
:1035F800002BA36011DAA269934207DBE8B20A281C
:1036080004D023685A1C22601D7070BD22462946CA
:103618003046BDE8704000F041BE2368E8B25A1C4D
:1036280022601D7070BD3046FFF7CAFADEE700BFA2
:10363800000000202DE9F041144641B30AB30646C4
:103648000D4600F0D5FE8442074602D8B4EB500F71
:1036580013D821463046FFF73DFC804650B1BC42A6
:103668002246294628BF3A46FFF7D6FE2946304665
:10367800FFF7B0FC4046BDE8F081A8464046BDE8EB
:10368800F081A046FFF7A6FC4046BDE8F081114650
:10369800BDE8F041FFF71EBC2DE9F84F92461F46E2
:1036A8000A698B680C469A42B8BF1A46CAF80020C5
:1036B80091F843300646DDF8289013B10132CAF874
:1036C8000020226891065FD5DAF800300233CAF884
:1036D8000030226812F0060F11461DD1E1689942A8
:1036E800D8BF114618DD4FF0000804F1190B05E0AA
:1036F800E568DAF80030ED1A45450CDD01235A4635
:1037080039463046C847013008F10108F0D14FF07A
:10371800FF30BDE8F88F216894F84330003B18BFAC
:1037280001238A060AD53021E21882F8431094F85A
:1037380045105A1C2244023382F843103946304659
:1037480004F14302C8470130E1D0D4E902202368DC
:10375800DAF8005003F00603042B21691BD08A42D3
:1037680020DD4FF00008521A904400251A3401E079
:10377800454517DA0123224639463046C847013005
:1037880005F10105F4D1C2E712F0060F0DD0003B98
:1037980018BF0123D2E7401B8A4220EAE078E2DC26
:1037A8000028E2DC0020BDE8F88FE168DAF8003094
:1037B8009942D8BF114696DCAEE700BF2DE9F04725
:1037C80017460A7E84B00C46064698460C9D01F1C1
:1037D800430C002A35D0A2F15803D9B2202969D860
:1037E800202B67D8DFE813F0E60066006600660065
:1037F8006600660066006600660066006600AC004B
:10380800700066006600660066007000660066006C
:103818006600660021008300C60066006600B600E8
:103828006600830066006600EC002B682268181D9D
:103838006169286010061B6802D4520600F1E08016
:1038480019600023E14623613B4621463046CDF806
:10385800008003AAFFF720FF013020D04A463946EE
:1038680030462369C047013019D02368E0689B07B8
:10387800DDF80C9018D5484516DD002504F1190A25
:1038880004E0E068A0EB0903AB420DDD01235246DA
:1038980039463046C047013005F10105F1D14FF0F6
:1038A800FF3004B0BDE8F0874845B8BF484604B0CB
:1038B800BDE8F087012084F8422004F14209002382
:1038C800206184F84330BFE72A682368111D180671
:1038D800296002D4590600F1958010680146002835
:1038E8006268C0F293804FF00A0E534815E02068D2
:1038F8002B6810F0800F53F8041B02D1400648BF14
:1039080089B26F2A14BF4FF00A0E4FF0080E4A48CA
:103918002B600023626884F84330002AA26051DBE0
:10392800236823F00403236000294BD1002A7BD1AC
:10393800E146BEF1080F56D0ACEB0903236183E7DB
:103948002A680120116804322A6004F1420984F8C7
:103958004210B4E72B6800211A1D2A60D3F80090A2
:103968006268484600F01CFA002863D0A0EB090002
:103978006060A4E7236843F02003236078222F487F
:1039880084F845202A6813F0800F52F8041B03D1ED
:1039980013F0400F18BF89B22A60DA0744BF43F01A
:1039A8002003236019B9236823F0200323604FF014
:1039B800100EAEE75823204884F845302368E1E725
:1039C8002368DBE77546E146B1FBF5F30A4605FBDC
:1039D800131A194610F80A30AA4209F8013DF3D221
:1039E800BEF1080FA8D12368DD07A5D56268236951
:1039F8009A42A1DC302309F1FF3989F800309BE7AE
:103A080019801EE7B2F90010084668E72D20002A41
:103A1800A26084F8430002DB23F0040323600A2534
:103A28000548AE464942CEE7037804F1420984F8D6
:103A380042307EE7606842E7784F01088C4F010802
:103A4800704700BF704700BF002A3ED0844630B59B
:103A58000446084380070B462ED1032A07D82BE0DB
:103A6800043A25D01EF0803F22D1032A22D91946D4
:103A78002068A446A0F1013323EA000E0B4653F850
:103A8800045B0434A842EBD09CF800000C78844214
:103A98001DD1E64668B11EF8010F11F8014FA2EBDF
:103AA8000E03A04203F1FF3311D11CEB0303F1D144
:103AB800002030BDA44619469CF800000C78A042AE
:103AC80005D1012AF4D0E646E4E710467047001B0A
:103AD80030BD00BF70B5B1F90C300C46990796B0EF
:103AE80007D5012204F14703C4E90432236016B064
:103AF80070BDB4F90E100546002929DB6A4601F0AD
:103B0800BBF9002822DB4FF480612846019EFFF7AD
:103B1800E1F988B3A38906F4704643F08003A381D2
:103B28004FF48063B6F5005FC4E904032060DED17A
:103B38002846B4F90E1000F029FA0028D7D0A38936
:103B480023F0030343F00103A381D0E7B4F90C3059
:103B580013F0800F14BF40264FF480662846314684
:103B6800FFF7B8F940B1A389C4E9040643F080031C
:103B78002060A38116B070BDB4F90C309A05B6D494
:103B8800012123F0030304F1470243F00203C4E9CF
:103B98000421A3812260AAE770B50C46B1F90E1082
:103BA800154600291E4696B00FDB6A4601F064F9F7
:103BB80000280ADB019B4FF4806203F47043A3F5ED
:103BC8000053B3FA83F35B0907E0A289002312F0DC
:103BD800800F14BF40224FF48062002033602A60B7
:103BE80016B070BD80EA010C1CF0030F37D110F03D
:103BF800030C20F0030021F0030150F8042B08BF48
:103C080051F8043B0ED08CF0030C6FF07F434FEA61
:103C1800CC0C23FA0CFC51F8043B42EA0C0243EAB0
:103C28000C0300BFA2F1013C9A4201BF2CEA020C2E
:103C38001CF0803F50F8042B51F8043BF2D04FEAB7
:103C480002604FEA1222012828BFB0EB036F08BFB9
:103C58001B0AF4D003F0FF03000EC01A704710F0DF
:103C6800030F0AD010F8012B11F8013B012A28BFD5
:103C78009A42F4D0A2EB030070474DF8045D50F867
:103C8800042B01F0030521F0030151F8043B022D38
:103C980026D04DD822F07F45B5EB132FA2F1013C79
:103CA8002CEA020C0DD11CF0803C08BF51F8043BF3
:103CB8000AD185EA0205B5EB036F0CD150F8042B45
:103CC800E8E74FEA13235BE03CF07F4C54D10B78D4
:103CD8004FEA126554E04FEA126503F0FF034FE024
:103CE8004FEA0245A2F1013C4FEA15452CEA020CC5
:103CF800B5EB134F18D11CF0803C08BF51F8043BBA
:103D080007D185EA0205B5EB034F09D150F8042B1A
:103D1800E6E75FEA0C4C2FD10B884FEA12452FE0FB
:103D28004FEA03434FEA12454FEA134328E000BF26
:103D380002F0FF05B5EB136FA2F1013C2CEA020C6F
:103D48000DD11CF0803C08BF51F8043B0AD185EA2C
:103D58000205B5EB032F0AD150F8042BE8E74FEA28
:103D680013630DE012F0FF0F06D051F8043B4FEA41
:103D7800122523F07F4303E04FF0000020BC70477A
:103D880005F0FF0203F0FF00012828BF904204BF9E
:103D98002D0A1B0AF4D0A2EB000020BC704700BF1C
:103DA8005FFA81FC810744D00346511E22B909E01D
:103DB8009A0709D0013905D31846027801336245BC
:103DC800F6D1704700207047184603290CD80029FF
:103DD800F8D00346014401E08B42F3D0184613F8AB
:103DE800012B6245F8D1704710B50CEB0C24024644
:103DF80004EB044402E00439032915D9104652F8AB
:103E0800043B6340A3F1013E2EEA030313F0803F15
:103E1800F1D00346014401E08B4208D0184613F85C
:103E2800012B6245F8D110BD10460029F1D10020C0
:103E380010BD1146C9E700BF08B410B5002A0446F2
:103E48009DB034DB4FF4027C4FF00003ADF814C092
:103E58001B934FF6FF7C0291069120AB15D0013AD7
:103E68000492079202A91F9A0193ADF816C0FEF7B3
:103E7800CFFB421C01DA8B2323600022029B1A70BD
:103E88001DB0BDE8104001B070470492079202A926
:103E98001F9A0193ADF816C0FEF7BAFB431C01DA6E
:103EA8008B2323601DB0BDE8104001B070478B2301
:103EB8004FF0FF302360F5E70CB410B5204B002914
:103EC8001C689CB036DB4FF000034FF402721B9362
:103ED8004FF6FF7C02900690ADF814201FAB16D069
:103EE80001391E9A04910791204602A90193ADF861
:103EF80016C0FEF78DFB421C01DA8B2323600022DB
:103F0800029B1A701CB0BDE8104002B070470491C3
:103F1800079120461E9A02A90193ADF816C0FEF734
:103F280077FB431C01DA8B2323601CB0BDE81040EB
:103F380002B070478B234FF0FF302360F5E700BFD6
:103F4800000000200EB400B582B003AB53F8042B78
:103F58008168019300F068F802B05DF804EB03B0E3
:103F6800704700BF0FB400B5074A83B004AB1068B0
:103F780053F8042B8168019300F056F803B05DF8FC
:103F880004EB04B0704700BF00000020002238B5E1
:103F9800064D044608462A6002F0F6FA431C00D093
:103FA80038BD2B68002BFBD0236038BD700600207D
:103FB8009368013B002B936005DAD2F818C063457B
:103FC80007DB0A2905D01368581C106008461970C9
:103FD800704700F063B900BF9BB1F8B513440646BB
:103FE8000F46541E5D1E01E0AC4208D03A463046EA
:103FF80014F8011FFFF7DCFF431CF5D1F8BD0020C2
:10400800F8BD0020704700BF936810B514461BB96F
:1040180018460023636010BD00F0F2F90023A36086
:104028000023636010BD00BF2DE9F04FA1B08B469F
:1040380091461C46049018B1036A002B00F01381C6
:10404800BBF80C30180740F18E80DBF81030002BDD
:1040580000F08980002343F220020D9399F8003084
:104068000127824E0794ADF83920002B73D04D46B6
:1040780003E015F8013F002B7FD0252BF9D1B5EBD4
:10408800090A7DD12B78002B65D000234FF0FF3231
:104098000135CDE9092308930B938DF863301E93FE
:1040A80006E02546089B801B07FA00F003430893A7
:1040B8002C46052214F8011B3046FFF771FEA14675
:1040C8000028EED1089BD90644BF20228DF8632032
:1040D8001A0748BF2B22297848BF8DF863202A2960
:1040E80064D1079A1168043200290792C0F29680B9
:1040F8000B9169782E296FD05D4C03222046FFF77B
:104108004FFE38B14022089B001B8240134309F13F
:104118000109089319F8011B062256488DF8381032
:10412800FFF73EFE00287FD0534B002B69D007A92C
:1041380000915A460498514B08A9AFF300800390A8
:10414800039B013307D00D9B039A13440D9399F8F1
:104158000030002B8BD1BBF80C305B060AD40D98CD
:1041680021B0BDE8F08F59460498FFF7F3F800280E
:104178003FF470AF4FF0FF30F2E7B5EB090AEAD031
:1041880009F1FF3805954546DDF8108001E0A245A4
:104198003ED92C465A46404615F8011FFFF708FF3E
:1041A80002340130A4EB0904F1D1D4E7A1F13002C3
:1041B800092A88BFA9469DD80B9B00E001342178C5
:1041C80003EB830302EB4303A1F13002092AF5D97B
:1041D8002E29A1460B938FD199F801102A292DD1A8
:1041E800079B09F102001A680433002A0793B8BF35
:1041F8004FF0FF3399F8021009928146B8BF09932E
:104208007AE7079B073323F00703083307939AE7F6
:104218000D99059D51442B780D9134E7494243F09F
:1042280002030B91089364E707A900915A46049882
:10423800124B08A9FFF7C2FA039081E70023A1F106
:104248003002092A09F1010909933FF655AF19F817
:10425800011F03EB830302EB4303A1F13002092A98
:10426800F5D9099348E7FEF7ABFCE9E6644F010886
:104278006C4F0108704F010800000000E13F000882
:104288008C4600B586461346034A714610685DF8A9
:1042980004EB6246FFF7C8BE00000020F8B50646EA
:1042A8000D46144610B1036A002B37D0A269A389C2
:1042B800A2601A0719D52369BBB122686169D31AAC
:1042C800EDB299422F4620DD0133A1680139A16082
:1042D800511C2160157062699A420DD0A389DB07D1
:1042E80001D50A2D08D03846F8BD21463046FFF7DB
:1042F80031F838B92369E0E721463046FEF762FD18
:104308000028F0D04FF0FF37EDE721463046FEF7A2
:1043180059FD0028F6D101232268D6E7FEF750FCA4
:10432800C4E700BF03460A46024908681946FFF772
:10433800B5BF00BF00000020002238B5064D044676
:1043480008462A6002F038F9431C00D038BD2B68B3
:10435800002BFBD0236038BD7006002010B50C463A
:10436800B1F90E1000F072FD002803DB636D034401
:10437800636510BDA38923F48053A38110BD00BFDA
:10438800002070472DE9F0410C46B1F90C101F468A
:10439800CB05054616460BD421F48051A1813B4636
:1043A80032462846B4F90E10BDE8F04100F080BE50
:1043B800B4F90E100223002200F0C0FDB4F90C106D
:1043C800EAE700BF10B50C46B1F90E1000F0B6FDD3
:1043D800B4F90C30421C0EBF23F4805343F48053CD
:1043E8006065A38110BD00BFB1F90E1000F016BDC5
:1043F80051F8043C181F002BBCBF0B58C01870475D
:104408009368002B00F0F0802DE9F04FB1F90CC053
:1044180090461CF0080F81460C4683B02BD00B69E0
:104428004BB31CF00207D8F8006032D04FF0000AF6
:104438005546D4F828B0216AAB4FC5B1BD422B46CA
:10444800524628BF3B464846D847002840F3C2801A
:10445800D8F8083082441B1A2D1AC8F80830002BE7
:1044680000F0AE80D4F828B0216A002DE6D1D6E954
:1044780000A50836E1E721464846FEF76BFF00280D
:1044880040F0AD80B4F90CC0D8F800601CF0020709
:10449800CCD11CF0010A63D157462368A16818469D
:1044A8008B46002F58D01CF4007F00F0B180B94231
:1044B8000A4600F2DD801CF4906F2FD021696269F2
:1044C8005D1A02EB420202EBD2726B1C52103B44A3
:1044D800934292BF93469B461A461CF4806F00F0A5
:1044E800E68011464846FEF7F5FC002800F0F58006
:1044F8002A4621690190FEF78FFFA289019B22F4C9
:10450800906242F08002A2815819C4F814B0ABEB53
:1045180005053A46BB462361A56020603D46002755
:1045280051460192FEF7B4FDA1682368019AA1EBF8
:104538000B011A44A1602260D8F80830AA445B1B1A
:10454800C8F80830002B3BD02368A16818468B4672
:10455800B4F90CC0002FA6D1D6E900A708369EE70B
:104568003846BB463D46002D40D0002845D03A4647
:10457800D4E904C32068AA4228BF2A466045A16836
:1045880004D901EB030A524500F38280934272DC9E
:104598005A464846216AD4F828C0E047B0F1000AD4
:1045A80018DDB7EB0A070FD00120D8F80830D3443C
:1045B800A3EB0A03A5EB0A05C8F80830002BD2D1F3
:1045C800002003B0BDE8F08F21464846FEF7FAFB0D
:1045D8000028EAD0B4F90C3043F04003A3814FF02F
:1045E800FF3003B0BDE8F08F002070477568334690
:1045F8000836002DFAD0D3F800B02A460A215846CA
:10460800FFF7CEFB002865D00130A0EB0B07AEE723
:1046180022699A4214D36569BD4211D86FF00043EC
:10462800BB4228BF3B4693FBF5F3524605FB03F319
:104638004846A56A216AA847051ECBDD7F1B7BE794
:10464800B94228BF39460D46184651462A46FEF754
:104658001FFDA1682368491B2B44A1602360002922
:10466800ECD121464846FEF7ADFB0028E6D0B1E77D
:10467800BB463A4652E759460192FEF709FD019AB0
:10468800A36892469B1AA36023681344236088E7B3
:1046980059465246FEF7FCFC2368214653444846D7
:1046A8002360FEF78FFB00283FF47BAF92E7484674
:1046B800FEF7C0FF034600287FF426AF484621696D
:1046C800FEF788FC0C22B4F90C30C9F8002023F05E
:1046D800800381E76A1C17464AE70C22B4F90C30BC
:1046E800C9F8002078E700BF00FCFF7F4B1C70B5BD
:1046F8001AD014469389526823F02003A381636B70
:10470800CDB2A3B1A36B934209DD23685A1E226080
:1047180003F8015C636801336360284670BD214675
:1047280000F022FC0028F0D04FF0FF35F5E72369B0
:1047380021682BB18B4203D211F8013CAB420ED059
:1047480023460320C4E90F12012204F14406A063A2
:10475800666303F8465F2846C4E9003270BD013934
:104768000132C4E90012D8E710B50C46496B69B1AB
:1047780004F14403994201D0FEF72CFC0020236C7D
:104788006063636013B1E36B236010BD0021A289ED
:104798004FF0FF3042F020022369A2816160F3E705
:1047A8002DE9F04792460025884AADF5247DA1926F
:1047B8009AF80090864A0DF108084595A292469508
:1047C800CDF81C810193B9F1000F13D0814E074633
:1047D80016F809300C4613F008030AF101052ED12A
:1047E800B9F1250F44D06368002B08DD23681A78D7
:1047F8004A450FD045980DF5247DBDE8F087214640
:104808003846A29B9847002840F0098123681A7807
:104818004A45EFD1AA46013323606368013B6360D0
:10482800469B013346939AF80090B9F1000FE1D006
:1048380016F809300AF1010513F00803D0D06268B0
:104848000CE023681A780133B25C11070ED5626850
:104858004699013AC4E9003201314691002AF0DC58
:1048680021463846A29B98470028EAD0AA46DAE7AC
:10487800449342939AF801102A2905D110234293B0
:104888009AF802100AF10205A1F13003092B0DD89C
:10489800002303EB830301EB4301A1F130034493AD
:1048A80015F8011FA1F13002092AF2D9DFF828A171
:1048B80003225046FFF774FA38B10123429AA0EB5D
:1048C8000A008340134301354293AA461AF8013B74
:1048D800782B00F28380DFE813F0A80081008100C4
:1048E80081008100810081008100810081008100B8
:1048F80081008100810081008100810081008100A8
:104908008100810081008100810081008100810097
:104918008100810081008100810081008100810087
:1049280081008100110181008100810081008100E6
:104938008100810081008100810081008100810067
:104948008100810081008100810081008100810057
:104958008100810081008100810081008100810047
:1049680081008100C600C600C60081008100810068
:104978008100810081008100810081008100810027
:1049880081008100810081008100C90081008100CF
:10499800FB0081008100810081008100810081008D
:1049A8000701DD00C600C600C60081000E018100B7
:1049B800810081008100DF00EE00F20081008100AB
:1049C800F9008100DD0081008100C900F54600087A
:1049D80071470008D93101086C4F01080323489337
:1049E8000A2343936368002B4DDD429B580625D567
:1049F800489B022B40F38480042B40F38880474B6C
:104A0800002B3FF410AF2246384601AB42A9AFF362
:104A1800008001283FF4EEAE02287FF404AF4598E9
:104A280018B1A3895B067FF5E6AE4FF0FF30E2E6EA
:104A380021463846A29B98470028F0D1226813786F
:104A4800F35C1907D4D563684699013B0131002B03
:104A58004691636002F10102EADD22601378F35C9B
:104A68001907C5D5EFE705234893BBE7429A42F4F7
:104A78000072429210226E2B43921ED80323489351
:104A88006368002BB1DC21463846A29B9847002872
:104A9800ABD0C4E70A22EEE7429BDA063FF5C3AE85
:104AA800019ADB0702F104000190469913684CBF94
:104AB80019801960B7E6082343930423DFE710231E
:104AC8004393429B43F408734293F6E70223D6E7E5
:104AD8005146404600F0E4F901234893429B824640
:104AE80043F0400342937DE700234893429B43F001
:104AF8004003429376E700234393BFE7554672E6A7
:104B08002246384601AB42A900F00AF881E722465E
:104B1800384601AB42A900F069F87AE700000000C6
:104B28002DE9F84314468A6807460D4688692AB96C
:104B3800002814BF4FF0FF3201228A602A68D2068B
:104B480003D41A68111D196016684FF00009DFF8C0
:104B5800988000B3012837D002283BD123681A78FF
:104B680018F80220120735D42A6809F10109D1067C
:104B780003D41B7806F8013B23686168AA680139E9
:104B88000133013AC4E90031AA606AB1002904DDA1
:104B9800A8690028DED12368E6E721463846D5F81B
:104BA800803198470028F3D02B6813F0100305D103
:104BB800EA680132EA60AA6902B1337000202B6901
:104BC8004B442B61BDE8F88323686A691978525C05
:104BD800002AC9D1B9F1000FE6D10128F2D02B681B
:104BE80013F01003EAD1E3E7D93101082DE9F04FBA
:104BF8000C4687B0854D0DF10C0A0746164695E818
:104C08000700DFF80CE28AE80700DFF808C2A269AB
:104C18000093032A08BFE646A368CDF804E05A1EAD
:104C2800B2F5AE7F40F2AB806FF4AE7003EB0009D3
:104C380040F25D13A360A04658F81C2B4FF0000B00
:104C4800454642F450622260336802221978DAF845
:104C58000000FFF7A5F850B3BBF1010F0CD0BBF172
:104C6800020F00F0AD80A3685A1EA260A3B94FF0EE
:104C7800010B0AF1040AE7E7D4E900321AB908225D
:104C880043F40073626023F4A0632360A3685A1E90
:104C9800A260002B00F0848033685A1C32601B78B5
:104CA80005F8013B7368013B002B73606EDD0BF167
:104CB800010BBBF1030FDCD16168002962D0C1F19F
:104CC8001001554B6069194400F0EAF8A368002BFD
:104CD80063D04FF0000A06E0336801333360A368FD
:104CE800013BA360E3B1326860691178D4F800C071
:104CF800405C2CF4106E002875D0302953D0C4F8CD
:104D080000E0137805F8013B7368013B002B7360E2
:104D1800E2DC31463846D4F8803198470028DED0A6
:104D28002268D1050CD5454507D915F8011C32462E
:104D38003846D4F87C31013D9847454564D022680F
:104D480012F0100211D12A70636838464146019E5C
:104D5800B04723689A0648D500990B681A1D0A605F
:104D68001B681860E3680133E36000202369A5EB42
:104D7800080555442B44236107B0BDE8F08F4FF078
:104D8800000958E70A23062163609AE73146384646
:104D9800D4F880319847002889D04FF0000ABFE73F
:104DA8004FF0020B65E71CF4006FA8D001330AF13D
:104DB800010AB9F1000FA7D0A36009F1FF39A3E7F1
:104DC800236803F4C062B2F5007F7FF475AF43F443
:104DD8008073236010236360A3685A1EA260002BAF
:104DE8003FF46AAF58E762469BE7009EDF073268E8
:104DF80002F1040103D5316013681880B2E7009B03
:104E0800196013681860ADE70120B5E7DC320108C6
:104E180019520008DD320008A04F0108002238B5F9
:104E2800064D044608462A6001F09EFB431C00D04C
:104E380038BD2B68002BFBD0236038BD70060020DE
:104E4800014B1868704700BF0000002038B50C46B9
:104E5800114600228446074D20462A601A466446B9
:104E680001F0A2FB431C00D038BD2B68002BFBD0FF
:104E7800236038BD7006002070B50026074D044633
:104E8800084611462E6001F077FB431C00D070BD28
:104E98002B68002BFBD0236070BD00BF700600207C
:104EA80070B50D7804465E2D25D04FF0000EF446FF
:104EB800481C002223466EF307026EF30F226EF39E
:104EC800174204F580716EF31F6243F8042B8B427E
:104ED800FBD175B18CF00101615500F1010E1EF88E
:104EE800013C2D2B0FD05D2B0BD01BB11D467046FE
:104EF800F2E7013870BD4FF0010E4D78F446881C7A
:104F0800D7E7704670BD90F801C0BCF15D0FEDD0D9
:104F18006545EBDC6E1C0230A21902F8011B131B5D
:104F2800013B9C45F9DCACEB0503013B6545A8BF9B
:104F380000230EF1020EF518D1E700BF38B50C4674
:104F4800114600228446074D20462A601A466446C8
:104F580001F022FB431C00D038BD2B68002BFBD08E
:104F6800236038BD700600202DE9F0410C46496BDE
:104F780004F14403994214D0A66B77003A46FEF731
:104F880059FB054630B300EB060801463246404659
:104F9800FEF742FAC4E90D57C4F800800020BDE8C6
:104FA800F0814FF48061FDF795FF98B14FF480616F
:104FB80094F846206063A16380F8FF2394F84520A5
:104FC80000F2FD3380F8FE2394F8442080F8FD2396
:104FD8002360E3E74FF0FF30E1E700BF70B54C1CFA
:104FE8002BD00E460546144610B1036A002B4CD050
:104FF800B4F90C3023F020025807A28106D4D90650
:105008001BD51B0734D442F00402A281626B63688B
:10501800F6B2AAB1A26B9A4209DD23685A1E226031
:1050280003F8016C636801336360304670BD214644
:105038002846FFF799FF0028EFD04FF0FF36F4E736
:10504800226921682AB18A4203D211F8012CB2429E
:105058001ED022460320C4E90F13012304F144059E
:10506800A063656302F8466F3046C4E9002370BD4B
:1050780021462846FDF7A6FE0028DED1B4F90C200B
:10508800A06022F00802A061BDE7FDF799FDAFE737
:1050980001390133C4E90013C7E700BF03460A46D4
:1050A800024908681946FFF799BF00BF00000020B1
:1050B80038B50C46114600228446074D20462A6022
:1050C8001A46644601F086FA431C00D038BD2B68A6
:1050D800002BFBD0236038BD700600202DE9F04777
:1050E80007460E46484C304616F801EB14F80EC039
:1050F8001CF0080CF7D1BEF12D0F5AD0BEF12B0FC2
:1051080009BF6446644696F800E0861C4BB9BEF1B8
:10511800300F5CD00A234FF0050A9946DFF8EC807F
:105128000AE0102B4AD04FF0FF38B8FBF3F803FB26
:1051380008FA99466FEA0A0A0025284605E02CD0A5
:10514800012509FB00C016F801EBAEF1300CBCF1EB
:10515800090F06D9AEF1410CBCF1190F0BD8AEF10D
:10516800370C634510DDB5F1FF3FECD04045E6D97B
:105178004FF0FF35E7E7AEF1610CBCF1190F03D82A
:10518800AEF1570C6345EEDC6B1C0BD004B140420A
:105198000AB165B91160BDE8F087D445D0DD4FF09C
:1051A800FF35D0E7222328463B60002AF3D0711E42
:1051B800F0E796F800E00124861CA7E7BEF1300F5F
:1051C80011D04FF00F0A6FF070489946B4E7337862
:1051D80003F0DF03582B0BD008234FF0070A6FF0BA
:1051E80060489946A8E7307800F0DF005828E8D1F1
:1051F8004FF0100996F801E04FF00F0A6FF0704871
:105208004B46023698E700BFD93101089999991998
:1052180064E700BF8C4600B586461346034A7146CC
:1052280010685DF804EB624658E700BF00000020F4
:105238008C4600B586461346034A714610685DF8E9
:1052480004EB62464AE700BF0000002030B5224A5E
:1052580021F00043934287B01BD9204A934205D9D5
:1052680002460B4601F0C2F907B030BD02AA00F0B1
:1052780037F800F0030001281FD0022811D018BB0E
:10528800DDE90423DDE902010124009400F0C0FEF9
:10529800EAE7002400220023009400F0B9FE07B0DA
:1052A80030BD0124DDE90423DDE90201009400F0AA
:1052B800AFFE01F1004107B030BDDDE90423DDE9AF
:1052C800020101F025F8CFE7DDE90423DDE9020159
:1052D80001F01EF8EDE700BFFB21E93FFFFFEF7F7C
:1052E8002DE9F04F844B21F000459D4280468946C8
:1052F80014468FB040F28A80804B0E469D4228D8D3
:1053080073A3D3E90023002940F39D8101F06EF9CE
:105318007B4B06469D420F4600F089806EA3D3E979
:10532800002301F063F902460B463046394616461B
:105338001F4601F05BF968A3D3E9002301F056F991
:10534800C4E900670127C4E9020138460FB0BDE887
:10535800F08F6C4B9D4240F284806B4B9D425DD830
:105368002F15A7F21647A5EB0751894601F090FDC6
:1053780001F08AFA02460B4640464946CDE9082321
:1053880001F034F90022614B01F0E8FA89468046C1
:1053980001F07EFD01F078FA02460B464046494688
:1053A800CDE90A2301F022F90022584B01F0D6FA80
:1053B80003254FF000084FF00009CDE90C010DF16D
:1053C800380A42467AE902014B46AB46013D01F0F4
:1053D8002DFD0028F5D102254D493A4601915B463D
:1053E800214608A8009500F081F9002E0746ACDA9E
:1053F80060682268E16800F10043C4E90023A268FC
:1054080001F10043C4E902237F429EE70022002302
:10541800C4E90089C4E90223002796E702460B463F
:1054280001F0E4F8C4E90201C4E90001F4E72CA39F
:10543800D3E9002301F0DAF82BA3D3E9002380464F
:10544800894601F0D3F806460F4632463B464046A9
:10545800494601F0CBF824A3D3E9002301F0C6F8AC
:105468006EE701F07DF822A3D3E900238046894640
:1054780001F074FA0022274B01F0BAF801F008FD98
:10548800074601F001FA02460B46CDE9042310A3B2
:10549800D3E9002301F062FA02460B46404649462A
:1054A80001F0A4F80CA3D3E9002382468B46DDE97A
:1054B800040101F053FA1F2FCDE902012EDC164B2F
:1054C8007A1E53F82230AB4228D002460B4699E0A8
:1054D80000004054FB21F93F3163621A61B4D03DAA
:1054E8000000601A61B4D03D7370032E8A19A33B83
:1054F80083C8C96D305FE43FFB21E93F7BD9024097
:10550800FB21F93FFB213941FFFFEF7F000070418C
:10551800683301080000E03FE8320108DDE90223B2
:105528005046594601F062F82B150793C1F30A5308
:10553800C3EB1553102B8046894669DD60A3D3E978
:105548000023DDE9040101F009FA80468946424654
:105558004B465046594601F049F802460B4650461C
:10556800594692469B4601F041F842464B4601F0A7
:105578003DF855A3D3E9002380468946DDE90401B7
:1055880001F0ECF942464B4601F030F802460B4672
:1055980050465946CDE9022301F028F8079AC1F38D
:1055A8000A53D31A312B8046894631DD48A3D3E903
:1055B8000023DDE9040101F0D1F98046894642461D
:1055C8004B465046594601F011F802460B465046E4
:1055D800594692469B4601F009F842464B4601F06F
:1055E80005F83DA3D3E9002380468946DDE9040197
:1055F80001F0B4F942464B4600F0F8FF02460B466C
:10560800CDE902235046594600F0F0FF804689460E
:1056180042464B4650465946C4E9008900F0E6FF29
:10562800DDE9022300F0E2FF002EC4E90201BFF623
:105638008CAE09F10042C4E9008201F10042C4E9DC
:1056480002027F4281E600F0D3FF274B06469D42C7
:105658000F4618D022A3D3E9002300F0C9FF024661
:105668000B463046394616461F4600F0BFFF1CA3BE
:10567800D3E9002300F0BCFFC4E90067C4E90201D4
:105688004FF0FF3761E60EA3D3E9002300F0B0FF27
:105698000DA3D3E900238046894600F0A9FF0646FA
:1056A8000F4632463B464046494600F09FFF06A358
:1056B800D3E9002300F09CFFDEE700BFAFF30080D2
:1056C8000000601A61B4D03D7370032E8A19A33BA1
:1056D8000000002E8A19A33BC14920259A837B39F3
:1056E8003163621A61B4D03DFB21F93F2DE9F04FD7
:1056F800ADF51B7DBD4CA49D9C4654F82540013B4F
:1057080012F1140F814605940C910393C0F2A882FC
:10571800B749D31E81FB0301DB17C3EBA103079332
:105728000133A3EB8303DB00D318079A0D930CF125
:10573800FF33D61A059A12EB03081CD408F10108A6
:1057480000240025E346DDF894A2B04422AF08E027
:105758005AF8260001F098F801364645E7E80201B4
:1057680008D0002EF4DA2046294601364645E7E8F7
:105778000201F6D1DC46059B002BA9F1080304932E
:10578800B8BF4FEACC0637DBDDF80C9003EBCC084A
:105798004B460DF5E47BD9469B4622AA02EBCC0A80
:1057A800059A4FEACC0662440192CDF808C00696E5
:1057B800039B002BC0F29A81574600240025049EC3
:1057C80077E90223F6E9020101F0C8F802460B4620
:1057D8002046294600F00CFF464504460D46EFD109
:1057E800019B0BF1010B9B45E9E802450AF1080A08
:1057F800DED1DDF808C0069E059A049B934603EBAC
:10580800060A0EAB03EB8203043B08930EAB03EBD3
:105818008206CDE909A60D9FCDF82CC09AAB4FEAB8
:10582800CB0203EBCB03BBF1000F019253E92845F0
:105838002BDD0DF5E47A0DF138090AEB0208029721
:1058480000226C4B2046294601F088F801F020FB25
:1058580001F01AF80022684B06460F4601F07EF860
:1058680002460B462046294600F0C0FE01F010FB18
:1058780078E9022349F8040B3946304600F0B8FEAF
:10588800D04504460D46DBD1029F204629463A46BC
:1058980000F03EFB00224FF07F5304460D4601F016
:1058A8005DF800F0B1FC0022544B01F057F80246B5
:1058B8000B462046294600F099FE0D46044601F0A5
:1058C800E7FA064600F0E0FF02460B462046294666
:1058D80000F08CFE002F8046894640F391800BF142
:1058E800FF300EAB53F82030C7F1180243FA02F12B
:1058F80001FA02F29B1A0EAA42F82030C7F11702E9
:1059080043FA02F5002D0E4400F3D880002200234C
:105918004046494601F08AFA002800F05282059B69
:105928009B450DDD00220EAB0A9803EB8B0353F861
:10593800041D834242EA0102F9D1002A40F0D980CD
:10594800059B0EAA013B52F82330002B40F0CA8079
:105958000123089A52F8041D01330029FAD05B4448
:105968000BF1010807990B9A08EB010A0AF1804A22
:10597800A5990AF1FF3A5A44019E01EB8A0A22A925
:1059880001EBC209DDF824B072AA16440293069707
:10599800CDF804A0019B53F8040F019300F074FFA5
:1059A800039BE9E80201002B1DDBCA460024002501
:1059B800049F7AE90223F7E9020100F0CFFF0246CB
:1059C8000B462046294600F013FE5F4504460D4667
:1059D800EFD1029B08F101084345E6E90245D9DA0F
:1059E8009B46069F1AE700240025F2E77034010859
:1059F800ABAAAA2A0000703E0000704100002040B7
:105A080053D10BF1FF330EAA52F82350ED15002D98
:105A18007FF77CAFBBF1000F06F1010640F341822E
:105A280000220EAB53F8044B002C3AD0C4F180741A
:105A38006FF07F4043F8044C03E01968411A43F8BB
:105A4800041B01329345F8DC0124002F0DDD012FE2
:105A58003DD0022F09D10BF1FF320EAB53F82230A3
:105A68000EA9C3F3150341F82230022D7FF44EAF7F
:105A780042464B4600208F4900F0B8FD80468946D3
:105A8800002C3FF443AF3A4600208A4900F040FA20
:105A980002460B464046494600F0A8FD8046894626
:105AA80034E701329345BDDCCFE70022824B01F099
:105AB800DBF9002840F0C280054627E7BBF1000F5C
:105AC800D8BF002406F10106AADC012FC1D10BF1D1
:105AD800FF320EAB53F822300EA9C3F3160341F878
:105AE8002230C2E70BF1010843463BE700240025BA
:105AF80076E60D9B0BF1FF34A3F118020EAB53F8B9
:105B08002430069604950D9263B90BF18043013B4E
:105B18000EA901EB830353F8041D013C183A002930
:105B2800F9D00D9200200D9A624900F0F1F9002C8D
:105B380006460F46C0F2C18104F1010A4FEACA02C3
:105B48004FF0000893460EAB03EB8A05DFF86C9123
:105B580072AB03EBCA0A55F8040D00F095FE324605
:105B68003B4600F0FBFE4B466AE9020142463046DE
:105B7800394600F0F3FE0EAB9D4206460F46EAD1C9
:105B88005A464FF00009ABF108034AA972A800EB86
:105B9800030AA3460B46CDE907425246CA46DDF83A
:105BA80014900391B9F1000FC0F28180904600264D
:105BB80000240025CDE90132414F01E0564510DCB3
:105BC800F7E90223F8E8020100F0C8FE02460B4696
:105BD8002046294600F00CFD0136B14504460D4625
:105BE800ECDADDE901320BF1FF3BBBF1FF3FE3E803
:105BF80002450AF1010AA2F10802D3D1DDE9074200
:105C0800A49B022B5EDC002B2FDC10D1002000218E
:105C1800039DAC1874E9022300F0EAFCAC42F9D108
:105C2800049B002B40F039810C9BC3E90001069BC3
:105C380003F007000DF51B7DBDE8F08FBBF1000FE9
:105C4800C8BF022506F101063FF7EAAE42464B46B9
:105C58000020184900F0CAFC02258046894655E60E
:105C680000216FF0170307915EE5039B00260027CC
:105C780098469D18304675E90223394600F0B8FC6D
:105C8800454506460F46F5D10B460246DDE94A0171
:105C980000F0ACFC049B002B00F0E2800C9D07F1A7
:105CA8000042C5E90062002C40F0DE80E8E00024F4
:105CB800002598E70000F03F0000E03F0000703E3C
:105CC80078340108A49B032BB1D1002C00F0058186
:105CD800039B4FEAC40803EBC405A946D5E900674E
:105CE80001950294059559E9024530463946224600
:105CF8002B4600F07DFCB246BB4606460F463246B0
:105D08003B462046294600F071FC5B46524600F0AF
:105D18006FFCC9E9000169E90267039B9945E2D173
:105D2800029C059D012C00F0D880D5E90045039B15
:105D3800DDF8049003F1080BCDF80480D84659E942
:105D480002672046294632463B4600F051FCA246EF
:105D5800AB4604460D4622462B463046394600F0EF
:105D680045FC52465B4600F043FCC9E9000169E97D
:105D78000245C845E3D100200021DDF80480039BDB
:105D880008F108041C4403F1100574E9022300F02B
:105D98002FFCA542F9D1DDE94A56039BD3E90278E5
:105DA800049B002B46D10C9BC3E90401C3E90056B0
:105DB800C3E90278069B03F007000DF51B7DBDE8DB
:105DC800F08F06960D9E404649467242049500F0B3
:105DD8009FF800224B4B5F468046894601F044F805
:105DE800F8B10022484B4046494600F0B7FD01F0A3
:105DF8004FF8054600F048FD0022424B00F0AEFD8A
:105E08000B4602464946404600F0F0FB01F040F8D8
:105E18007C1C0EAB183643F82B000D9643F8245023
:105E280080E64046494601F033F80EAB5C4643F83D
:105E38002B0077E60C9B2C4606F100455D601D465D
:105E48001C6008F10043C5E90273069B01F100429A
:105E5800C5E9040203F007000DF51B7DBDE8F08FCE
:105E68000C9BC3E9006774B10125DDF80C8001358E
:105E7800F8E9022300F0BCFBAC42F8DA049B13B14A
:105E880001F1004319460C9BC3E90201069B03F08C
:105E980007000DF51B7DBDE8F08F01F100431946A1
:105EA800C2E6022D7FF432AD02460B4600201749A8
:105EB80000F09CFB8046894628E5A49B022B06DC63
:105EC800002B0DDC7FF4B3AE00200021A8E6A49BD4
:105ED800032B7FF4ACAE4AAB0393002000215AE7B2
:105EE800049BDDE94A0133B100224FF000430C9CCA
:105EF800C4E90023C4E7002200230C9CC4E9002362
:105F0800C1E700BF000070410000703E0000F03F94
:105F18002DE9F0411646C1F30A52074688460B465A
:105F28006ABB21F00043034327D0334B002200F023
:105F380015FD324B07469E4288463CDB0B46C1F3B3
:105F48000A52363A4CF250318E4221DC164440F265
:105F5800FE7296421CDC002E26DC16F1350F31DB72
:105F680023F0FF4121F4E001363641EA06550022CC
:105F780038462946224B00F0F1FCBDE8F08140F29A
:105F8800FF7C6245DED1024600F032FBBDE8F081BD
:105F9800454615A3D3E9002363F31E05294619488E
:105FA80000F0DCFCBDE8F0816FF31E53384643EA8D
:105FB8000651BDE8F0810EA3D3E9002300F0CEFC22
:105FC800BDE8F08108F0004444F0D27141F4B731E3
:105FD80007A3D3E900230C4841F01F0100F0BEFCE1
:105FE800CBE700BFAFF300809C7500883CE4377EA8
:105FF80059F3F8C21F6EA50100005043B03CFFFFE3
:106008000000903C9C75008859F3F8C2000000001D
:106018002DE9F04F83B0CDE9002321F00043B3F11F
:10602800795F04460D4604D200F032FF002800F0E4
:10603800858022462B462046294600F08FFC0646DE
:106048000F4632463B462046294600F087FC3EA3D1
:10605800D3E9002382468B463046394600F07EFC61
:106068003BA3D3E9002300F0C1FA32463B4600F0D7
:1060780075FC39A3D3E9002300F0BAFA32463B464F
:1060880000F06CFC36A3D3E9002300F0AFFA3246E7
:106098003B4600F063FC34A3D3E9002300F0A8FAE0
:1060A8000C9B804689469BB3DDE900010022324BF8
:1060B80000F054FC42464B468046894650465946B5
:1060C80000F04CFC02460B464046494600F08EFA6A
:1060D80032463B4600F042FCDDE9002300F086FA38
:1060E80023A3D3E9002306460F465046594600F03D
:1060F80035FC02460B463046394600F079FA02462E
:106108000B462046294600F071FA03B0BDE8F08F2F
:1061180002460B463046394600F020FC14A3D3E96A
:10612800002300F063FA52465B4600F017FC224653
:106138002B4600F05DFA03B0BDE8F08F20462946F3
:1061480003B0BDE8F08F00BF7CD5CF5A3AD9E53D02
:10615800EB9C2B8AE6E55A3E7DFEB157E31DC73E10
:10616800D561C119A0012A3FA6F810111111813F6C
:10617800495555555555C53F0000E03F1F4A21F088
:10618800004393421BD930B51D4A87B0934205D9C5
:1061980002460B4600F02AFA07B030BD02AAFFF704
:1061A8009FF800F00300012817D002280BD0E0B9AF
:1061B800DDE90423DDE9020100F0AAF8ECE700229A
:1061C800002300F0A5B8DDE90423DDE9020100F0B1
:1061D8009FF801F1004107B030BD0090DDE90423CC
:1061E800DDE90201FFF714FFF3E70124DDE90423E9
:1061F800DDE902010094FFF70BFFCDE7FB21E93F42
:10620800FFFFEF7F00000000C1F30A5C2DE9F041B9
:10621800ACF2FF35132D02460B460C46064632DC1F
:10622800002D20DBDFF8E0800F4648FA05F801EA88
:10623800080C5CEA000C2BD031A3D3E9002300F052
:10624800D7F90022002300F019FE40B1002C03DA30
:106258004FF480132B411F44002627EA08042146E7
:106268003046BDE8F08126A3D3E9002300F0C0F949
:106278000022002300F002FE0028F0D0002C27DBCB
:1062880000263446EBE7332D06DDB5F5806F1CD0CC
:1062980010461946BDE8F0814FF0FF37ACF2134CB9
:1062A80027FA0CF70742F3D015A3D3E9002300F02F
:1062B8009FF90022002300F0E1FD0028CFD0002C38
:1062C80033460CDB23EA0706C9E700F091F9E1E75A
:1062D80024F0004426430DD14FF00044BFE7142DAD
:1062E80006D00122C5F13405AA401344B342E9D2CD
:1062F8000134E7E70026054CB1E700BFAFF30080A3
:106308009C7500883CE4377EFFFF0F000000F0BF5B
:106318002DE9F04F21F00048B8F1795F06460F46A5
:1063280092469B4685B06DD200F0B2FD002800F081
:10633800ED8032463B463046394600F00FFB76A3E7
:10634800D3E9002304460D4600F008FB74A3D3E903
:10635800002300F04DF922462B4600F0FFFA72A305
:10636800D3E9002300F042F922462B4600F0F6FA62
:106378006FA3D3E9002300F03BF922462B4600F037
:10638800EDFA6DA3D3E9002300F030F922462B463D
:1063980000F0E4FA6AA3D3E9002300F029F92246C1
:1063A8002B4600F0DBFACDE9000100222046294601
:1063B800654B00F0D3FADDE9002380468946204684
:1063C800294600F0CBFA44464D4680468946524657
:1063D8005B463046394600F0C1FA02460B46404655
:1063E800494600F003F902460B462046294600F0CC
:1063F800FDF802460B460020544900F0F7F805B0B6
:10640800BDE8F08F02460B4600F0A8FA42A3D3E994
:10641800002304460D4600F0A1FA41A3D3E9002366
:1064280000F0E6F822462B4600F098FA3EA3D3E99E
:10643800002300F0DBF822462B4600F08FFA3CA33D
:10644800D3E9002300F0D4F822462B4600F086FA60
:1064580039A3D3E9002300F0C9F822462B4600F0FF
:106468007DFA37A3D3E9002300F0C2F82B46224671
:1064780000F074FA364BCDE90001984595D9354BB3
:10648800002298453AD8A8F5001300202F499046D5
:10649800994600F0ABF8CDE90201002220462946D2
:1064A800294B00F05BFA42464B4600F09FF8DDE9C5
:1064B8000023804689462046294600F04FFA444684
:1064C8004D468046894652465B463046394600F07E
:1064D80045FA02460B464046494600F087F8024610
:1064E8000B462046294600F081F802460B46DDE9B6
:1064F800020100F07BF805B0BDE8F08F164B4FF0B5
:106508000008CDE90223DFF85490C6E700200F49C0
:1065180005B0BDE8F08F00BFD43888BEE9FAA8BD41
:10652800C4B1B4BD9EEE213EAD529C804F7E923EDA
:106538009015CB19A001FA3E7751C1166CC1563F90
:106548004C5555555555A53F0000E03F0000F03F1C
:106558003233D33F0000E93F0000E73F0000D23F5D
:1065680021F00043194670475822024B4FF0FF3084
:106578001A607047700600205822024B4FF0FF3017
:106588001A607047700600205822024B00201A60DB
:10659800704700BF700600205822024B4FF0FF30B2
:1065A8001A607047700600205822024B4FF0FF30E7
:1065B8001A60704770060020044A05491368002BCA
:1065C80008BF0B4618441060184670477406002030
:1065D800007000205822024B4FF0FF301A607047BD
:1065E8007006002081F0004102E000BF83F0004304
:1065F80030B54FEA41044FEA430594EA050F08BF56
:1066080090EA020F1FBF54EA000C55EA020C7FEA19
:10661800645C7FEA655C00F0E2804FEA5454D4EB96
:106628005555B8BF6D420CDD2C4480EA020281EA60
:10663800030382EA000083EA010180EA020281EA98
:106648000303362D88BF30BD11F0004F4FEA0131EA
:106658004FF4801C4CEA113102D0404261EB4101F9
:1066680013F0004F4FEA03334CEA133302D052427F
:1066780063EB430394EA050F00F0A780A4F101043B
:10668800D5F1200E0DDB02FA0EFC22FA05F2801875
:1066980041F1000103FA0EF2801843FA05F359415B
:1066A8000EE0A5F120050EF1200E012A03FA0EFCDA
:1066B80028BF4CF0020C43FA05F3C01851EBE37104
:1066C80001F0004507D54FF0000EDCF1000C7EEB21
:1066D80000006EEB0101B1F5801F1BD3B1F5001F5F
:1066E8000CD349085FEA30004FEA3C0C04F101047E
:1066F8004FEA445212F5800F80F09A80BCF1004FA7
:1067080008BF5FEA500C50F1000041EB045141EA28
:10671800050130BD5FEA4C0C404141EB0101013CF1
:1067280028BFB1F5801FE9D291F0000F04BF0146E0
:106738000020B1FA81F308BF2033A3F10B03B3F1B2
:1067480020020CDA0C3208DD02F1140CC2F10C0242
:1067580001FA0CF021FA02F10CE002F11402D8BFA0
:10676800C2F1200C01FA02F120FA0CFCDCBF41EA6C
:106778000C019040E41AA2BF01EB0451294330BD3B
:106788006FEA04041F3C1CDA0C340EDC04F1140418
:10679800C4F1200220FA04F001FA02F340EA0300EF
:1067A80021FA04F345EA030130BDC4F10C04C4F135
:1067B800200220FA02F001FA04F340EA0300294615
:1067C80030BD21FA04F0294630BD94F0000F83F45F
:1067D800801306BF81F480110134013D4EE77FEA42
:1067E800645C18BF7FEA655C29D094EA050F08BF8E
:1067F80090EA020F05D054EA000C04BF194610466F
:1068080030BD91EA030F1EBF0021002030BD5FEAB2
:10681800545C05D14000494128BF41F0004130BDDA
:1068280014F580043CBF01F5801130BD01F000452E
:1068380045F0FE4141F470014FF0000030BD7FEAA1
:10684800645C1ABF194610467FEA655C1CBF0B469C
:10685800024650EA013406BF52EA033591EA030FB3
:1068680041F4002130BD00BF90F0000F04BF0021AB
:10687800704730B54FF4806404F132044FF00005DE
:106888004FF0000150E700BF90F0000F04BF002157
:10689800704730B54FF4806404F1320410F00045BD
:1068A80048BF40424FF000013EE700BF42004FEAB8
:1068B800E2014FEA31014FEA02701FBF12F07F4335
:1068C80093F07F4F81F06051704732F07F4208BFEC
:1068D800704793F07F4F04BF41F40021704730B5F3
:1068E8004FF4607401F0004521F000411CE700BF3F
:1068F80050EA010208BF704730B54FF000050AE0C2
:1069080050EA010208BF704730B511F0004502D5C2
:10691800404261EB41014FF4806404F132045FEAC4
:10692800915C3FF4D8AE4FF003025FEADC0C18BF6D
:1069380003325FEADC0C18BF033202EBDC02C2F15F
:10694800200300FA03FC20FA02F001FA03FE40EAF1
:106958000E0021FA02F11444BDE600BF70B54FF0F5
:10696800FF0C4CF4E06C1CEA11541DBF1CEA1355D3
:1069780094EA0C0F95EA0C0F00F0DEF82C4481EA3B
:10698800030621EA4C5123EA4C5350EA013518BF5B
:1069980052EA033541F4801143F4801338D0A0FB48
:1069A80002CE4FF00005E1FB02E506F00042E0FBF5
:1069B80003E54FF00006E1FB03569CF0000F18BFFB
:1069C8004EF0010EA4F1FF04B6F5007F64F54074A3
:1069D80004D25FEA4E0E6D4146EB060642EAC62136
:1069E80041EA55514FEAC52040EA5E504FEACE2EA3
:1069F800B4F1FD0C88BFBCF5E06F1ED8BEF1004FA6
:106A080008BF5FEA500E50F1000041EB045170BD21
:106A180006F0004646EA010140EA020081EA030165
:106A2800B4EB5C04C2BFD4EB0C0541EA045170BD61
:106A380041F480114FF0000E013C00F3AB8014F1DB
:106A4800360FDEBF002001F0004170BDC4F1000424
:106A5800203C35DA0C341BDC04F11404C4F12005A5
:106A680000FA05F320FA04F001FA05F240EA020000
:106A780001F0004221F0004110EBD37021FA04F636
:106A880042EB06015EEA430E08BF20EAD37070BDF0
:106A9800C4F10C04C4F1200500FA04F320FA05F04F
:106AA80001FA04F240EA020001F0004110EBD37051
:106AB80041F100015EEA430E08BF20EAD37070BDC1
:106AC800C4F1200500FA05F24EEA020E20FA04F39A
:106AD80001FA05F243EA020321FA04F001F0004149
:106AE80021FA04F220EA020000EBD3705EEA430EBA
:106AF80008BF20EAD37070BD94F0000F0FD101F0E9
:106B08000046400041EB010111F4801F08BF013C21
:106B1800F7D041EA060195F0000F18BF704703F05F
:106B28000046520043EB030313F4801F08BF013DE6
:106B3800F7D043EA0603704794EA0C0F0CEA1355A2
:106B480018BF95EA0C0F0CD050EA410618BF52EA5C
:106B58004306D1D181EA030101F000414FF0000062
:106B680070BD50EA410606BF1046194652EA430670
:106B780019D094EA0C0F02D150EA013613D195EAE4
:106B88000C0F05D152EA03361CBF104619460AD12C
:106B980081EA030101F0004141F0FE4141F4700136
:106BA8004FF0000070BD41F0FE4141F4780170BD26
:106BB80070B54FF0FF0C4CF4E06C1CEA11541DBF8B
:106BC8001CEA135594EA0C0F95EA0C0F00F0A7F88D
:106BD800A4EB050481EA030E52EA03354FEA0131BA
:106BE80000F088804FEA03334FF0805545EA1313CD
:106BF80043EA12634FEA022245EA111545EA106595
:106C08004FEA00260EF000419D4208BF964244F12B
:106C1800FD0404F5407402D25B084FEA3202B61A4A
:106C280065EB03055B084FEA32024FF480104FF41E
:106C3800002CB6EB020E75EB030E22BFB61A754692
:106C480040EA0C005B084FEA3202B6EB020E75EB25
:106C5800030E22BFB61A754640EA5C005B084FEA8D
:106C68003202B6EB020E75EB030E22BFB61A75465A
:106C780040EA9C005B084FEA3202B6EB020E75EB65
:106C8800030E22BFB61A754640EADC0055EA060E26
:106C980018D04FEA051545EA16754FEA06164FEA69
:106CA800C30343EA52734FEAC2025FEA1C1CC0D115
:106CB80011F4801F0BD141EA00014FF000004FF0A2
:106CC800004CB6E711F4801F04BF01430020B4F163
:106CD800FD0C88BFBCF5E06F3FF6AFAEB5EB030C1B
:106CE80004BFB6EB020C5FEA500C50F1000041EB18
:106CF800045170BD0EF0004E4EEA113114EB5C04E5
:106D0800C2BFD4EB0C0541EA045170BD41F48011B7
:106D18004FF0000E013C90E645EA060E8DE60CEABF
:106D2800135594EA0C0F08BF95EA0C0F3FF43BAFDC
:106D380094EA0C0F0AD150EA01347FF434AF95EA93
:106D48000C0F7FF425AF104619462CE795EA0C0F77
:106D580006D152EA03353FF4FDAE1046194622E744
:106D680050EA410618BF52EA43067FF4C5AE50EA1E
:106D780041047FF40DAF52EA43057FF4EBAE12E70E
:106D88004FF0FF3C06E000BF4FF0010C02E000BFEF
:106D98004FF0010C4DF804CD4FEA410C7FEA6C5CD2
:106DA8004FEA430C18BF7FEA6C5C1BD001B050EA75
:106DB800410C0CBF52EA430C91EA030F02BF90EA60
:106DC800020F0020704710F1000F91EA030F58BF1F
:106DD800994208BF90422CBFD8176FEAE37040F081
:106DE800010070474FEA410C7FEA6C5C02D150EA1F
:106DF800013C07D14FEA430C7FEA6C5CD6D152EADA
:106E0800033CD3D05DF8040B704700BF844610469E
:106E180062468C461946634600E000BF01B5FFF79D
:106E2800B7FF002848BF10F1000F01BD4DF808ED6D
:106E3800FFF7F4FF0CBF012000205DF808FB00BF3E
:106E48004DF808EDFFF7EAFF34BF012000205DF898
:106E580008FB00BF4DF808EDFFF7E0FF94BF0120E5
:106E680000205DF808FB00BF4DF808EDFFF7CEFFE6
:106E780094BF012000205DF808FB00BF4DF808ED25
:106E8800FFF7C4FF34BF012000205DF808FB00BFF6
:106E98004FEA410212F5001215D211D56FF478733A
:106EA800B3EB625212D94FEAC12343F0004343EADD
:106EB800505311F0004F23FA02F018BF40427047B8
:106EC8004FF00000704750EA013005D111F0004042
:106ED80008BF6FF0004070474FF00000704700BFD8
:106EE8004FEA4102B2F1E04324BFB3F5001CDCF1E4
:106EF800FE5C0DD901F0004C4FEAC0024CEA50701C
:106F0800B2F1004F40EB830008BF20F0010070474A
:106F180011F0804F21D113F13872BCBF01F000404D
:106F2800704741F480114FEA5252C2F11802C2F17F
:106F3800200C10FA0CF320FA02F018BF40F0010000
:106F48004FEAC1234FEAD32303FA0CFC40EA0C00B2
:106F580023FA02F34FEA4303CCE77FEA625307D1EF
:106F680050EA01331EBF4FF0FE4040F44000704726
:106F780001F0004040F0FE4040F40000704700BFC0
:106F880080F0004002E000BF81F0004142001FBFD6
:106F98005FEA410392EA030F7FEA226C7FEA236CDF
:106FA8006AD04FEA1262D2EB1363C1BFD2184140D4
:106FB80048404140B8BF5B42192B88BF704710F06A
:106FC800004F40F4000020F07F4018BF404211F00D
:106FD800004F41F4000121F07F4118BF494292EA75
:106FE800030F3FD0A2F1010241FA03FC10EB0C00A1
:106FF800C3F1200301FA03F100F0004302D549422E
:1070080060EB4000B0F5000F13D3B0F1807F06D3DA
:1070180040084FEA310102F10102FE2A51D2B1F1D2
:10702800004F40EBC25008BF20F0010040EA0300C7
:107038007047490040EB0000013A28BFB0F5000F47
:10704800EDD2B0FA80FCACF1080CB2EB0C0200FAFD
:107058000CF0AABF00EBC25052421843BCBFD0404C
:107068001843704792F0000F81F4000106BF80F4C6
:1070780000000132013BB5E74FEA41037FEA226C89
:1070880018BF7FEA236C21D092EA030F04D092F054
:10709800000F08BF0846704790EA010F1CBF002088
:1070A800704712F07F4F04D1400028BF40F00040E5
:1070B800704712F100723CBF00F50000704700F005
:1070C800004343F0FE4040F4000070477FEA22622C
:1070D80016BF08467FEA23630146420206BF5FEAFD
:1070E800412390EA010F40F4800070474FF00003FD
:1070F80004E000BF10F0004348BF40425FEA000CC4
:1071080008BF704743F0964301464FF000001CE06B
:1071180050EA010208BF70474FF000030AE000BFC1
:1071280050EA010208BF704711F0004302D54042FF
:1071380061EB41015FEA010C02BF84460146002071
:1071480043F0B64308BFA3F18053A3F50003BCFA8C
:107158008CF2083AA3EBC25310DB01FA02FC634439
:1071680000FA02FCC2F12002BCF1004F20FA02F240
:1071780043EB020008BF20F00100704702F1200233
:1071880001FA02FCC2F1200250EA4C0021FA02F294
:1071980043EB020008BF20EADC7070474FF0FF0C99
:1071A8001CEAD0521EBF1CEAD15392EA0C0F93EA94
:1071B8000C0F6FD01A4480EA010C400218BF5FEA36
:1071C80041211ED04FF0006343EA501043EA5111A9
:1071D800A0FB01310CF00040B1F5000F3EBF4900A3
:1071E80041EAD3715B0040EA010062F17F02FD2AA7
:1071F8001DD8B3F1004F40EBC25008BF20F001008A
:10720800704790F0000F0CF0004C08BF49024CEAA0
:10721800502040EA51207F3AC2BFD2F1FF0340EA32
:10722800C250704740F400004FF00003013A5DDCA3
:1072380012F1190FDCBF00F000407047C2F10002E4
:10724800410021FA02F1C2F1200200FA02FC5FEAD1
:10725800310040F1000053EA4C0308BF20EADC701B
:10726800704792F0000F00F0004C02BF400010F48D
:10727800000F013AF9D040EA0C0093F0000F01F03A
:10728800004C02BF490011F4000F013BF9D041EA5C
:107298000C018FE70CEAD15392EA0C0F18BF93EA5E
:1072A8000C0F0AD030F0004C18BF31F0004CD8D188
:1072B80080EA010000F00040704790F0000F17BF0F
:1072C80090F0004F084691F0000F91F0004F14D055
:1072D80092EA0C0F01D142020FD193EA0C0F03D1AD
:1072E8004B0218BF084608D180EA010000F00040B0
:1072F80040F0FE4040F40000704740F0FE4040F48B
:10730800400070474FF0FF0C1CEAD0521EBF1CEA29
:10731800D15392EA0C0F93EA0C0F69D0A2EB030247
:1073280080EA010C49024FEA402037D04FF08053E1
:1073380043EA111143EA10130CF000408B4238BFA6
:107348005B0042F17D024FF4000C8B4224BF5B1AB4
:1073580040EA0C00B3EB510F24BFA3EB510340EA02
:107368005C00B3EB910F24BFA3EB910340EA9C00B0
:10737800B3EBD10F24BFA3EBD10340EADC001B0120
:1073880018BF5FEA1C1CE0D1FD2A3FF650AF8B42C4
:1073980040EBC25008BF20F0010070470CF0004CD1
:1073A8004CEA50207F32C2BFD2F1FF0340EAC250FC
:1073B800704740F400004FF00003013A37E792F0BD
:1073C800000F00F0004C02BF400010F4000F013A1B
:1073D800F9D040EA0C0093F0000F01F0004C02BF16
:1073E800490011F4000F013BF9D041EA0C0195E77F
:1073F8000CEAD15392EA0C0F08D142027FF47DAF18
:1074080093EA0C0F7FF470AF084676E793EA0C0F07
:1074180004D14B023FF44CAF08466EE730F0004C05
:1074280018BF31F0004CCAD130F000427FF45CAF95
:1074380031F000437FF43CAF5FE700BF4FF0FF3C03
:1074480006E000BF4FF0010C02E000BF4FF0010C56
:107458004DF804CD4FEA40024FEA41037FEA226C1F
:1074680018BF7FEA236C11D001B052EA530C18BF41
:1074780090EA010F58BFB2EB030088BFC81738BFA6
:107488006FEAE17018BF40F0010070477FEA226C94
:1074980002D15FEA402C05D17FEA236CE4D15FEA90
:1074A800412CE1D05DF8040B704700BF84460846C4
:1074B8006146FFE70FB5FFF7C9FF002848BF10F185
:1074C800000F0FBD4DF808EDFFF7F4FF0CBF0120CA
:1074D80000205DF808FB00BF4DF808EDFFF7EAFF54
:1074E80034BF012000205DF808FB00BF4DF808ED0F
:1074F800FFF7E0FF94BF012000205DF808FB00BF04
:107508004DF808EDFFF7D2FF94BF012000205DF889
:1075180008FB00BF4DF808EDFFF7C8FF34BF012096
:1075280000205DF808FB00BF4FEA4002B2F1FE4FB1
:107538000FD34FF09E03B3EB12620DD94FEA00232D
:1075480043F0004310F0004F23FA02F018BF404206
:1075580070474FF00000704712F1610F01D14202ED
:1075680005D110F0004008BF6FF0004070474FF0A1
:107578000000704742000ED2B2F1FE4F0BD34FF01D
:107588009E03B3EB126209D44FEA002343F0004391
:1075980023FA02F070474FF00000704712F1610FB4
:1075A80001D1420202D14FF0FF3070474FF0000086
:1075B800704700BF53B94AB9002908BF00281CBF4B
:1075C8004FF0FF314FF0FF3000F066B9ADF1080C15
:1075D8006DE904CE00F006F8DDF804E0DDE90223E9
:1075E80004B070472DE9F047089D0E4604468E46C4
:1075F800002B4CD18A429446B2FA82F362D953B135
:1076080002FA03FCC3F1200201FA03FE20FA02F297
:1076180042EA0E0E9C404FEA1C47BEFBF7F11FFAE8
:107628008CF607FB11EE01FB06F0220C42EA0E4233
:1076380090420AD91CEB020201F1FF3E80F00E8154
:10764800904240F20B8102396244121AB2FBF7F001
:1076580007FB102200FB06F6A4B244EA0244A64245
:107668000AD91CEB040400F1FF3280F0F980A6422D
:1076780040F2F6806444023840EA01400021A41B2D
:107688001DB1DC400023C5E90043BDE8F0878B420B
:1076980005D90DB1C5E9000100210846F5E7B3FA9F
:1076A80083F1002942D1B34202D3824200F2EE8034
:1076B800841A66EB030201209646002DE5D0C5E941
:1076C800004EE2E7002B40F08C80881A0121170C4D
:1076D80096B2B0FBF7FE07FB1E00220C42EA0042FE
:1076E80006FB0EF0904208D91CEB02020EF1FF389F
:1076F80002D2904200F2CC80C646121AB2FBF7F0D2
:1077080007FB102200FB06F6A4B244EA0244A64294
:1077180008D91CEB040400F1FF3202D2A64200F2A1
:10772800B2801046A41B40EA0E40A9E7C1F1200729
:107738008B4022FA07FC4CEA030C26FA07FA4FEAB8
:107748001C48BAFBF8FE06FA01F308FB1EAA1FFA4A
:107758008CF620FA07F400FA01F90EFB06F0234331
:107768001C0C44EA0A44A04202FA01F20BD91CEBB1
:1077780004040EF1FF3A80F08480A04240F2818038
:10778800AEF1020E6444241A98B2B4FBF8F308FB75
:10779800134403FB06F640EA0444A64208D91CEB4E
:1077A800040403F1FF3068D2A64266D9023B644460
:1077B80043EA0E40A41BA0FB02E6B4427346B0465F
:1077C80052D34FD05DB1B9EB030264EB080404FA5D
:1077D80007F722FA01F31F43CC40C5E900740021E2
:1077E80053E702FA03FCC3F12000C1404FEA1C47EB
:1077F800B1FBF7FE07FB1E1124FA00F09E40304350
:10780800020C1FFA8CF642EA01420EFB06F1914285
:1078180004FA03F409D91CEB02020EF1FF382ED248
:1078280091422CD9AEF1020E6244521AB2FBF7F122
:1078380007FB112280B240EA024001FB06F28242B5
:1078480008D91CEB000001F1FF3814D2824212D98A
:1078580002396044801A41EA0E413AE77146F4E67B
:10786800104609E7F145ADD2BEEB020366EB0C0604
:107878000138B046A6E74146ECE7034698E7C64616
:10788800D3E7D6467FE7644402384BE7084614E757
:10789800AEF1020E624430E7704700BF044B00228D
:1078A800DA61044A136943F00103136101807047E8
:1078B8007806002000200240194BDB6813F0100303
:1078C80005D0184AD36943F00203D3611023144A40
:1078D800D26812F0040F06D01249CA6942F00102B8
:1078E800CA6143F004030E4AD26912F0010F09D0AD
:1078F8000C49CA6942F00402CA610949CA6922F0FE
:107908000102CA6140F20112934202D0044AD360D4
:107918007047034AD36923F00103D361704700BF5E
:107928000020024078060020074B1B6913F0800FE7
:1079380007D0054B054A5A6002F188325A60002088
:1079480070470120704700BF0020024023016745AF
:10795800034A136943F0800313610020704700BF96
:107968000020024038B5044601F068FA0546164B77
:10797800DB6813F0010F0AD0B4F1FF3FF7D024B150
:1079880001F05CFA401BA042F1D903201BE00E4B2A
:10799800DB6813F0200F02D00B4B2022DA600A4B71
:1079A800DB6813F0100F0BD1074BDB6913F0010FE5
:1079B80006D1054BDB6813F0040F01D1002002E06B
:1079C800FFF77AFF012038BD002002402DE9F84377
:1079D8001E46244B1B7E012B41D004460F46904681
:1079E800204B01221A764CF25030FFF7BBFF0346BA
:1079F80078BB012C08D0022C03D04FF004091C4698
:107A080007E04FF00209FAE74FF00109F7E7013400
:107A1800E4B24C451DD22101C1F12002A1F120039D
:107A280028FA01F106FA02F2114326FA03F3194380
:107A380089B207EB4400FFF731FF4CF25030FFF7F3
:107A480091FF094B1D6925F001051D6103460028BA
:107A5800DDD0044A002111761846BDE8F8830223D8
:107A6800FAE700BF7806002000200240014B0122FF
:107A78001A62704700000E4282B0084B1B68084A21
:107A8800A2FB03235B0A00FB03F3019300BF019BE6
:107A98005A1E0192002BF9D102B070475C000020F9
:107AA800D34D621070B582B00446036813F0010F1D
:107AB8002CD09A4B5B6803F00C03042B1DD0974B1A
:107AC8005B6803F00C03082B12D06368B3F5803FA2
