:020000040800F2
:1000000000C000205DEC0008F9A90008FBA9000869
:10001000FDA90008FFA9000801AA000800000000CF
:1000200000000000000000000000000003AA00081B
:1000300005AA00080000000007AA000809AA000895
:10004000A5EC0008A5EC0008A5EC0008A5EC00084C
:10005000A5EC0008A5EC000815AA000821AA0008D4
:100060002DAA000841AA00084DAA0008C98A000864
:10007000A5EC0008A5EC0008A5EC0008A5EC00081C
:10008000A5EC0008A5EC0008A5EC0008A5EC00080C
:10009000A5EC0008A5EC0008A5EC000859AA00088A
:1000A000A5EC0008A5EC0008A5EC0008A5EC0008EC
:1000B000A5EC0008EDA0000865A70008A5EC000865
:1000C000A5EC0008A5EC0008A5EC0008A5EC0008CC
:1000D000A5EC0008A5EC0008C9AC0008D9AC0008E4
:1000E00085AB0008A5EC0008A5EC0008A5EC00080D
:1000F000A5EC0008A5EC0008A5EC0008A5EC00089C
:10010000A5EC0008A5EC0008A5EC0008A5EC00088B
:10011000A5EC0008A5EC0008A5EC0008A5EC00087B
:10012000A5EC0008A5EC0008A5EC0008A5EC00086B
:1001300000000000000000000000000000000000BF
:1001400000000000000000000000000000000000AF
:10015000000000000000000000000000000000009F
:10016000000000000000000000000000000000008F
:10017000000000000000000000000000000000007F
:10018000000000000000000000000000000000006F
:10019000000000000000000000000000000000005F
:1001A000000000000000000000000000000000004F
:1001B000000000000000000000000000000000003F
:1001C000000000000000000000000000000000002F
:1001D000000000000000000000000000000000001F
:0401E0005FF8E0F1F3
:1001E8000348044B834202D0034B03B118477047BE
:1001F8001005002010050020000000000548064BEF
:100208001B1AD90F01EBA301491002D0034B03B10C
:100218001847704710050020100500200000000056
:1002280010B5064C237843B9FFF7DAFF044B13B136
:100238000448AFF300800123237010BD100500208F
:1002480000000000A8EC000808B5044B1BB10449E5
:100258000448AFF30080BDE80840CFE70000000085
:1002680014050020A8EC00080CB470B50C46002555
:100278006FF000469CB00A4A20AB059253F8042B55
:1002880002A9CDE901341B9504960796069400F05F
:10029800BFF9029B1D701CB0BDE8704002B07047EA
:1002A8000802FFFF0EB470B504466FF00046002543
:1002B8009DB00B4A21AB0B49106853F8042B0591EC
:1002C80002A9CDE90134049607961B95069400F01F
:1002D8009FF9029B1D701DB0BDE8704003B07047C8
:1002E800000000200802FFFF20F0030110F00300C7
:1002F800C0F1000051F8043B00F1040C4FEACC0CAB
:100308006FF000021CBF22FA0CF213434FF0010CED
:100318004CEA0C2C4CEA0C4CA3EB0C0222EA03022C
:1003280012EACC1204BF51F8043B0430F4D0C2F1F5
:10033800000102EA0102B2FA82F2C2F11F0200EBE6
:10034800D2007047830710B5044610D10268A2F1A5
:10035800013323EA020313F0803F08D150F8042F39
:10036800A2F1013323EA020313F0803FF6D00378A9
:100378001BB110F8013F002BFBD100F003F8204619
:1003880010BD00BF80EA0102844612F0030F4FD16E
:1003980011F0030F32D14DF8044D11F0040F51F84C
:1003A800043B0BD0A3F101329A4312F0803F04BF03
:1003B8004CF8043B51F8043B16D100BF51F8044BEC
:1003C800A3F101329A4312F0803FA4F101320BD11C
:1003D8004CF8043BA24312F0803F04BF51F8043BA1
:1003E8004CF8044BEAD023460CF8013B13F0FF0FFE
:1003F8004FEA3323F8D15DF8044B704711F0010F31
:1004080006D011F8012B0CF8012B002A08BF704701
:1004180011F0020FBFD031F8022B12F0FF0F16BFF8
:100428002CF8022B8CF8002012F47F4FB3D17047C0
:1004380011F8012B0CF8012B002AF9D1704700BFE5
:100448002DE9F0471D468F680C46AF4216460B68EB
:1004580036D8B1F90CC01CF4906F0ED13D46184641
:1004680031462A4600F0DEFB0020A368DF1B236824
:10047800A7602B442360BDE8F0874A69096902EB4D
:1004880042025F1A02EBD2726B1C52103B44934239
:1004980092BF914699461A461CF4806F804611D047
:1004A800114600F0E1FA824600B33A46216900F0AD
:1004B800F9FCA38923F4906343F08003A38105E04A
:1004C8002F46CCE700F0AAFD824658B10AEB070395
:1004D800A9EB0707A760C4F810A02F46C4F814902A
:1004E8002360BCE74046216900F03EFB0C22A3894B
:1004F8004FF0FF3043F04003C8F80020A381BAE76B
:100508002DE9F04F936883B0924617680190002B4D
:1005180076D04FF0000B0C465D468B680A6848E0C1
:10052800B4F90CC01CF4906F2FD0D4E90403A2EBEB
:10053800000803EB430202EBD27208F101015210EA
:100548002944914292BF914689460A461CF4806F1D
:1005580039D01146019800F087FA064600283DD0A8
:100568004246216900F09EFCA28922F4906242F082
:100578008002A28106EB0800A9EB08022661A846C2
:100588002E46A2602060C4F814903246594600F006
:1005980049FBDAF80810A3682268A3EB0803324481
:1005A800491BA3602260CAF8081049B3D7E900B50F
:1005B800083798461046002DF8D09D421E46AFD207
:1005C800A8462E46E1E70146019800F027FD0646B9
:1005D8000028CFD10198216900F0C6FA0C21A3891F
:1005E800019D43F0400329600022A3814FF0FF30B2
:1005F8000023CAF80820CAF8043003B0BDE8F08F19
:1006080000200023CAF8043003B0BDE8F08F00BF13
:100618002DE9F04F1C468B8989461D068246934674
:100628009DB003D50B69002B00F0EE80002343F248
:10063800200209939BF8003001277C4E0394ADF803
:100648002920002B71D05D4603E015F8013F002BEF
:1006580073D0252BF9D1B5EB0B0471D12A78002A78
:1006680063D000234FF0FF320135CDE90523049311
:1006780007938DF853301A9306E02546049B801B98
:1006880007FA00F0034304932C46052214F8011BD3
:10069800304600F013FFA3460028EED1049BD9068C
:1006A80044BF20228DF853201A0748BF2B222978EF
:1006B80048BF8DF853202A294FD1039A1168043274
:1006C800002903927BDB079169782E295BD0584C6F
:1006D8000322204600F0F2FE38B14022049B001BA2
:1006E800824013430BF1010B04931BF8011B0622F4
:1006F80050488DF8281000F0E1FE002865D04E4BD8
:10070800002B55D003A900914A4650464B4B04A9EB
:10071800AFF300808046B8F1FF3F06D0099B434401
:1007280009939BF80030002B8DD1B9F80C305B068B
:1007380079D409981DB0BDE8F08FB5EB0B04F4D05F
:1007480023465A4649465046FFF77AFE0130ECD018
:10075800099B2A782344099381E7A1F13002092AE9
:1007680088BFAB46B1D8079B00E00134217803EB82
:10077800830302EB4303A1F13002092AF5D92E299C
:10078800A3460793A3D19BF801102A2927D1039BDD
:100798000BF102001A680433002A0393B8BF4FF024
:1007A800FF339BF8021005928346B8BF05938EE786
:1007B800039B073323F0070308330393AEE749424B
:1007C80043F00203079104937EE703A900914A4688
:1007D80050461A4B04A900F0E5FC80469BE700232D
:1007E800A1F13002092A0BF1010B05933FF66FAF17
:1007F8001BF8011F03EB830302EB4303A1F1300253
:10080800092AF5D9059362E7402100F02DF9C9F8C6
:100818000000C9F8100018B14023C9F8143005E7E2
:100828000C23CAF800304FF0FF3083E7CCFF0008F4
:10083800D4FF0008D8FF00080000000049040008A1
:1008480070B50F4B0F4DAB42A3EB050607D0002444
:10085800B61055F8043B01349847A642F9D80EF073
:100868001FFA094D094B5E1BAB424FEAA60606D09C
:10087800002455F8043B01349847A642F9D870BDC6
:10088800480C0108480C0108480C01084C0C0108E8
:100898000EB44FF40172F0B500269CB021AD55F8A6
:1008A800047BADF814201B9602900690FFF71CFD00
:1008B8004FF6FF7204460A4B0A49ADF816200B930F
:1008C8003A462B46086802A90F9614960195039498
:1008D800079400F083FF1CB0BDE8F04003B07047F8
:1008E800B1160008000000200CB44FF401732DE984
:1008F800F04100269CB022AD0746084655F8048B07
:10090800ADF81430029106911B96FFF7EDFC4FF6F7
:10091800FF7304460949ADF816300B914246384634
:100928002B4602A90F96149601950394079400F09C
:1009380055FF1CB0BDE8F04102B07047B116000881
:1009480003460A4602490868194600F053B800BF32
:100958000000002070B5860747D0541E002A3ED0FC
:100968000346CAB201E0013C39D303F8012B9D07C5
:10097800F9D1032C2CD9CDB205EB05250F2C1A463D
:1009880005EB054534D9A4F1100C2CF00F0603F142
:10099800100EB6444FEA1C1CC2E90055C2E90255C4
:1009A80010327245F8D10CF1010214F00C0F03EB70
:1009B800021204F00F0C13D0ACF1040323F003036C
:1009C8000433134442F8045B9342FBD10CF0030454
:1009D8002CB1C9B21C4403F8011BA342FBD170BD62
:1009E80064461346002CF4D1F9E703461446C0E7E1
:1009F800A446E1E770B5A1FB025454B9294600F0BA
:100A080033F8064618B12A462146FFF7A3FF3046B9
:100A180070BD0C2200260260F9E700BF70B5114EC8
:100A2800054633680C46BBB12146284600F018FE3F
:100A3800431C01460CD0C41C24F00304A04205D07A
:100A48002846611A00F00CFE013001D0204670BD26
:100A58004FF0FF34204670BD194600F001FE3060AB
:100A6800E2E700BF2C0500202DE9F843CD1C25F056
:100A7800030508350C2D38BF0C25002D064618DB5C
:100A8800A94216D8DFF8DC8000F0CEFCD8F80420A4
:100A9800A2B1144603E0636822467BB11C46236872
:100AA8005B1BF8D40B2B1FD89442636854D0536057
:100AB8000CE00C2333600020BDE8F883294630465B
:100AC800FFF7ACFF431C044619D00560304600F020
:100AD800ADFC04F10B00231D20F00700C21A1CBF57
:100AE8001B1AA350BDE8F88361199442256014BF0E
:100AF8005160C8F80410635163684B60E6E7D8F8A2
:100B080004701FB33C467F68002FFBD12368394629
:100B1800304604EB030900F0A3FD814516D1236894
:100B28003046ED1A2946FFF779FF01300ED02368C9
:100B3800D8F804202B442360536883B1A34203D020
:100B48001A465B689C42FBD10023B0E70C23304671
:100B5800336000F06BFCAEE7C8F80430B6E7C8F8BD
:100B68000470B3E72C050020002950D038B551F89F
:100B7800043C0C1F002BB8BFE418054600F054FCD9
:100B8800274A13682BB1A3420CD921686018834205
:100B98002CD0284663601460BDE8384000F046BC9D
:100BA800A3420FD81A465B68002BF9D11168501878
:100BB800844217D02CD3636054602846BDE838407F
:100BC80000F034BC11685018A04214D020D8216815
:100BD80060188342EFD118685B680844C4E90003D1
:100BE8005460EAE723680B441360E6E718685B681B
:100BF80008442060CDE72068014450188342116002
:100C0800DBD1D3E900040144C2E90014D5E77047F9
:100C18000C2328462B60BDE8384000F007BC00BF15
:100C28003005002088420ED98B1883420BD900EB7F
:100C3800020C002A6DD0624613F801CD994202F8E1
:100C480001CDF9D170470F2A0FD8034602F1FF3CB6
:100C5800002A5ED00CF1010C013B8C4411F8012BE9
:100C6800614503F8012FF9D1704740EA01039B075A
:100C780050D1A2F1100370B501F1200C23F00F053B
:100C880001F1100E00F11004AC441B095EF8105C71
:100C98000EF1100E44F8105C5EF81C5C103444F839
:100CA8001C5C5EF8185C44F8185C5EF8145CE64559
:100CB80044F8145CEAD1013312F00C0F01EB031174
:100CC80002F00F0400EB031328D08E46043C24F0F6
:100CD80003064FEA940C1E441C1F5EF8045B44F89C
:100CE800045FB442F9D10CF1010402F0030203EBF2
:100CF800840301EB840102F1FF3C4AB10CF1010CC1
:100D0800013B8C4411F8012B614503F8012FF9D1FF
:100D180070BD7047034602F1FF3C9BE72246EAE7B5
:100D28000A22002100F0B0B80A23002200F09CB883
:100D3800242B2DE9F84F42D8012B40D01F468E4670
:100D48008046484875461EF801BB10F80B4014F061
:100D58000804F7D1BBF12D0F6FD06FF00049BBF13C
:100D68002B0F04BF9EF800B005F1020E7BBBBBF150
:100D7800300F4CD00A273B460025B9FBF7F628462A
:100D880007FB169A05E03BD0012507FB00C01EF8BB
:100D980001BBABF1300CBCF1090F06D9ABF1410C2A
:100DA800BCF1190F1AD8ABF1370C63451FDDB5F14B
:100DB800FF3FECD08642E6D24FF0FF35E7E701F07F
:100DC8003BFA1622034600201A60BDE8F88F102B64
:100DD800D2D1BBF1300F23D01F46CDE7ABF1610C68
:100DE800BCF1190F03D8ABF1570C6345DFDC6B1C62
:100DF8002BD054B9002AE8D085BB1160BDE8F88F24
:100E0800E245C1DA4FF0FF35C1E74042F2E79EF80C
:100E1800003003F0DF03582B08D008273B46ABE728
:100E28009EF8000000F0DF005828D5D110279EF862
:100E380001B03B460EF1020E9EE79EF800B04FF05F
:100E48000049012405F1020E90E72223C8F800307A
:100E580032B10EF1FF3148461160CFE78146F8E71D
:100E68004846B2E7D5EC000862E700BF8C4600B5FB
:100E780086461346034A714610685DF804EB6246DD
:100E880056E700BF000000208C4600B58646134692
:100E9800034A714610685DF804EB624648E700BFF4
:100EA80000000020844641EA000313F0030349D1FF
:100EB800403A23D30B6803604B6843608B688360B8
:100EC800CB68C3600B6903614B6943618B698361BC
:100ED800CB69C3610B6A03624B6A43628B6A8362A4
:100EE800CB6AC3620B6B03634B6B43638B6B83638C
:100EF800CB6BC36340304031403ADBD230320BD346
:100F08000B6803604B6843608B688360CB68C36081
:100F180010301031103AF3D20C3205D351F8043B9B
:100F280040F8043B043AF9D2043208D0D2071CBF77
:100F380011F8013B00F8013B01D30B8803806046A0
:100F4800704700BF082A13D38B07B1D010F00303F2
:100F5800AED0C3F10403D21ADB071CBF11F8013B62
:100F680000F8013BA4D331F8023B20F8023B9FE78D
:100F7800043AD9D3013A11F8013B00F8013BF9D200
:100F88000B7803704B7843708B788370604670479A
:100F9800024B01461868FFF767BD00BF000000203C
:100FA800024B01461868FFF7DFBD00BF00000020B4
:100FB80040EA01039B0710B524D1032A22D98E46A3
:100FC8008446DEF800407146A4F1013323EA0403A5
:100FD80013F0803F0EF1040E15D1043A032A4CF8A1
:100FE800044BEED8714601F1FF3E52B163461EF83C
:100FF800011F541E03F8011B41B122469C46002ADA
:10100800F4D110BD844601F1FF3EEEE79444002C74
:10101800F7D003F8011B6345FBD110BD2DE9F04162
:10102800144641B30AB306460D4600F075FB8442E8
:10103800074602D8B4EB500F13D821463046FFF7C5
:1010480013FD804650B1BC422246294628BF3A4685
:10105800FFF728FF29463046FFF786FD4046BDE8E2
:10106800F081A8464046BDE8F081A046FFF77CFD28
:101078004046BDE8F0811146BDE8F041FFF7F4BCF9
:101088002DE9F84F92461F460A698B680C469A422A
:10109800B8BF1A46CAF8002091F843300646DDF872
:1010A800289013B10132CAF80020226891065FD552
:1010B800DAF800300233CAF80030226812F0060F5E
:1010C80011461DD1E1689942D8BF114618DD4FF08D
:1010D800000804F1190B05E0E568DAF80030ED1AAC
:1010E80045450CDD01235A4639463046C84701308C
:1010F80008F10108F0D14FF0FF30BDE8F88F216802
:1011080094F84330003B18BF01238A060AD53021E2
:10111800E21882F8431094F845105A1C224402330E
:1011280082F843103946304604F14302C84701307B
:10113800E1D0D4E902202368DAF8005003F006036E
:10114800042B21691BD08A4220DD4FF00008521A77
:10115800904400251A3401E0454517DA0123224658
:1011680039463046C847013005F10105F4D1C2E7D8
:1011780012F0060F0DD0003B18BF0123D2E7401B29
:101188008A4220EAE078E2DC0028E2DC0020BDE8C0
:10119800F88FE168DAF800309942D8BF114696DC3A
:1011A800AEE700BF2DE9F04717460A7E84B00C462B
:1011B800064698460C9D01F1430C002A35D0A2F151
:1011C8005803D9B2202969D8202B67D8DFE813F053
:1011D800E600660066006600660066006600660057
:1011E800660066006600AC00700066006600660077
:1011F80066007000660066006600660021008300D5
:10120800C60066006600B6006600830066006600D9
:10121800EC002B682268181D6169286010061B689D
:1012280002D4520600F1E08019600023E1462361F0
:101238003B4621463046CDF8008003AAFFF720FF41
:10124800013020D04A46394630462369C04701302C
:1012580019D02368E0689B07DDF80C9018D548453D
:1012680016DD002504F1190A04E0E068A0EB090383
:10127800AB420DDD0123524639463046C0470130A6
:1012880005F10105F1D14FF0FF3004B0BDE8F0875A
:101298004845B8BF484604B0BDE8F087012084F847
:1012A800422004F142090023206184F84330BFE75B
:1012B8002A682368111D1806296002D4590600F10E
:1012C80095801068014600286268C0F293804FF04C
:1012D8000A0E534815E020682B6810F0800F53F869
:1012E800041B02D1400648BF89B26F2A14BF4FF0D1
:1012F8000A0E4FF0080E4A482B600023626884F8F3
:101308004330002AA26051DB236823F004032360E2
:1013180000294BD1002A7BD1E146BEF1080F56D0F7
:10132800ACEB0903236183E72A68012011680432C2
:101338002A6004F1420984F84210B4E72B680021BE
:101348001A1D2A60D3F800906268484600F0B6F883
:10135800002863D0A0EB09006060A4E7236843F08D
:101368002003236078222F4884F845202A6813F048
:10137800800F52F8041B03D113F0400F18BF89B235
:101388002A60DA0744BF43F02003236019B92368B1
:1013980023F0200323604FF0100EAEE758232048B7
:1013A80084F845302368E1E72368DBE77546E146C2
:1013B800B1FBF5F30A4605FB131A194610F80A3073
:1013C800AA4209F8013DF3D2BEF1080FA8D123685B
:1013D800DD07A5D5626823699A42A1DC302309F1AB
:1013E800FF3989F800309BE719801EE7B2F9001031
:1013F800084668E72D20002AA26084F8430002DB33
:1014080023F0040323600A250548AE464942CEE787
:10141800037804F1420984F842307EE7606842E7C5
:10142800E0FF0008F4FF0008704700BF704700BFE6
:10143800002A3ED0844630B50446084380070B4650
:101448002ED1032A07D82BE0043A25D01EF0803F7E
:1014580022D1032A22D919462068A446A0F10133D3
:1014680023EA000E0B4653F8045B0434A842EBD081
:101478009CF800000C7884421DD1E64668B11EF83D
:10148800010F11F8014FA2EB0E03A04203F1FF3345
:1014980011D11CEB0303F1D1002030BDA44619463D
:1014A8009CF800000C78A04205D1012AF4D0E64649
:1014B800E4E710467047001B30BD00BF5FFA81FCAF
:1014C800810744D00346511E22B909E09A0709D082
:1014D800013905D31846027801336245F6D17047C1
:1014E80000207047184603290CD80029F8D0034675
:1014F800014401E08B42F3D0184613F8012B6245F2
:10150800F8D1704710B50CEB0C24024604EB0444E8
:1015180002E00439032915D9104652F8043B634008
:10152800A3F1013E2EEA030313F0803FF1D00346F6
:10153800014401E08B4208D0184613F8012B62459C
:10154800F8D110BD10460029F1D1002010BD114678
:10155800C9E700BF08B410B5002A04469DB034DBC3
:101568004FF4027C4FF00003ADF814C01B934FF604
:10157800FF7C0291069120AB15D0013A04920792A4
:1015880002A91F9A0193ADF816C0FFF741F8421C53
:1015980001DA8B2323600022029B1A701DB0BDE87C
:1015A800104001B070470492079202A91F9A019354
:1015B800ADF816C0FFF72CF8431C01DA8B23236023
:1015C8001DB0BDE8104001B070478B234FF0FF30CD
:1015D8002360F5E70CB410B5204B00291C689CB0BB
:1015E80036DB4FF000034FF402721B934FF6FF7C7B
:1015F80002900690ADF814201FAB16D001391E9A40
:1016080004910791204602A90193ADF816C0FEF790
:10161800FFFF421C01DA8B2323600022029B1A7011
:101628001CB0BDE8104002B07047049107912046F5
:101638001E9A02A90193ADF816C0FEF7E9FF431CF4
:1016480001DA8B2323601CB0BDE8104002B070475C
:101658008B234FF0FF302360F5E700BF0000002028
:10166800002238B5064D044608462A6002F0A0F963
:10167800431C00D038BD2B68002BFBD0236038BD3D
:101688007006002010B50C46B1F90E1000F0FCFDF4
:10169800002803DB636D0344636510BDA38923F44D
:1016A8008053A38110BD00BF002070472DE9F04191
:1016B8000C46B1F90C101F46CB05054616460BD44F
:1016C80021F48051A1813B4632462846B4F90E10D8
:1016D800BDE8F04100F0F6BEB4F90E100223002276
:1016E80000F036FEB4F90C10EAE700BF10B50C465E
:1016F800B1F90E1000F02CFEB4F90C30421C0EBFEC
:1017080023F4805343F480536065A38110BD00BF68
:10171800B1F90E1000F0B2BC51F8043C181F002BB0
:10172800BCBF0B58C01870474B1C70B51AD0144674
:101738009389526823F02003A381636BCDB2A3B1D0
:10174800A36B934209DD23685A1E226003F8015CEB
:10175800636801336360284670BD214600F00EFEC1
:101768000028F0D04FF0FF35F5E7236921682BB149
:101778008B4203D211F8013CAB420ED02346032022
:10178800C4E90F12012204F14406A063666303F85A
:10179800465F2846C4E9003270BD01390132C4E908
:1017A8000012D8E710B50C46496B69B104F144033F
:1017B800994201D0FFF7D8F90020236C6063636079
:1017C80013B1E36B236010BD0021A2894FF0FF30F5
:1017D80042F020022369A2816160F3E72DE9F04716
:1017E80092460025884AADF5247DA1929AF800908A
:1017F800864A0DF108084595A2924695CDF81C81B8
:101808000193B9F1000F13D0814E074616F809303D
:101818000C4613F008030AF101052ED1B9F1250F82
:1018280044D06368002B08DD23681A784A450FD036
:1018380045980DF5247DBDE8F08721463846A29BE2
:101848009847002840F0098123681A784A45EFD163
:10185800AA46013323606368013B6360469B0133FA
:1018680046939AF80090B9F1000FE1D016F80930C4
:101878000AF1010513F00803D0D062680CE0236870
:101888001A780133B25C11070ED562684699013A9D
:10189800C4E9003201314691002AF0DC214638467D
:1018A800A29B98470028EAD0AA46DAE744934293D5
:1018B8009AF801102A2905D1102342939AF80210A8
:1018C8000AF10205A1F13003092B0DD8002303EB1F
:1018D800830301EB4301A1F13003449315F8011F81
:1018E800A1F13002092AF2D9DFF828A103225046D3
:1018F800FFF7E4FD38B10123429AA0EB0A008340C8
:10190800134301354293AA461AF8013B782B00F29B
:101918008380DFE813F0A800810081008100810046
:1019280081008100810081008100810081008100A7
:101938008100810081008100810081008100810097
:101948008100810081008100810081008100810087
:101958008100810081008100810081008100810077
:1019680011018100810081008100810081008100D6
:101978008100810081008100810081008100810057
:101988008100810081008100810081008100810047
:101998008100810081008100810081008100810037
:1019A800C600C600C6008100810081008100810058
:1019B8008100810081008100810081008100810017
:1019C800810081008100C90081008100FB00810045
:1019D8008100810081008100810081000701DD0014
:1019E800C600C600C60081000E018100810081008A
:1019F8008100DF00EE00F20081008100F900810023
:101A0800DD0081008100C90031170008AD1700080A
:101A1800D5EC0008D4FF0008032348930A23439316
:101A28006368002B4DDD429B580625D5489B022B49
:101A380040F38480042B40F38880474B002B3FF40D
:101A480010AF2246384601AB42A9AFF30080012807
:101A58003FF4EEAE02287FF404AF459818B1A3898D
:101A68005B067FF5E6AE4FF0FF30E2E621463846EA
:101A7800A29B98470028F0D122681378F35C1907D5
:101A8800D4D563684699013B0131002B46916360C8
:101A980002F10102EADD22601378F35C1907C5D56B
:101AA800EFE705234893BBE7429A42F4007242925B
:101AB80010226E2B43921ED8032348936368002B91
:101AC800B1DC21463846A29B98470028ABD0C4E732
:101AD8000A22EEE7429BDA063FF5C3AE019ADB071E
:101AE80002F104000190469913684CBF19801960EF
:101AF800B7E6082343930423DFE710234393429B6D
:101B080043F408734293F6E70223D6E7514640466A
:101B180000F0D0FB01234893429B824643F04003E8
:101B280042937DE700234893429B43F0400342934E
:101B380076E700234393BFE7554672E622463846C8
:101B480001AB42A900F00AF881E72246384601AB0A
:101B580042A900F069F87AE7000000002DE9F8438F
:101B680014468A6807460D4688692AB9002814BFB2
:101B78004FF0FF3201228A602A68D20603D41A681D
:101B8800111D196016684FF00009DFF8988000B33E
:101B9800012837D002283BD123681A7818F8022088
:101BA800120735D42A6809F10109D10603D41B7834
:101BB80006F8013B23686168AA6801390133013AD4
:101BC800C4E90031AA606AB1002904DDA8690028C7
:101BD800DED12368E6E721463846D5F880319847B4
:101BE8000028F3D02B6813F0100305D1EA680132FE
:101BF800EA60AA6902B1337000202B694B442B615B
:101C0800BDE8F88323686A691978525C002AC9D14B
:101C1800B9F1000FE6D10128F2D02B6813F01003B8
:101C2800EAD1E3E7D5EC00082DE9F04F0C4687B080
:101C3800854D0DF10C0A0746164695E80700DFF8B2
:101C48000CE28AE80700DFF808C2A2690093032AB9
:101C580008BFE646A368CDF804E05A1EB2F5AE7F89
:101C680040F2AB806FF4AE7003EB000940F25D13F5
:101C7800A360A04658F81C2B4FF0000B454642F4D1
:101C880050622260336802221978DAF80000FFF700
:101C980015FC50B3BBF1010F0CD0BBF1020F00F0E3
:101CA800AD80A3685A1EA260A3B94FF0010B0AF1D8
:101CB800040AE7E7D4E900321AB9082243F40073AA
:101CC800626023F4A0632360A3685A1EA260002BFD
:101CD80000F0848033685A1C32601B7805F8013B99
:101CE8007368013B002B73606EDD0BF1010BBBF1D8
:101CF800030FDCD16168002962D0C1F11001554B96
:101D08006069194400F0D6FAA368002B63D04FF03D
:101D1800000A06E0336801333360A368013BA3601F
:101D2800E3B1326860691178D4F800C0405C2CF4E3
:101D3800106E002875D0302953D0C4F800E013780D
:101D480005F8013B7368013B002B7360E2DC314608
:101D58003846D4F8803198470028DED02268D1056B
:101D68000CD5454507D915F8011C32463846D4F834
:101D78007C31013D9847454564D0226812F0100235
:101D880011D12A70636838464146019EB0472368DE
:101D98009A0648D500990B681A1D0A601B681860D6
:101DA800E3680133E36000202369A5EB0805554487
:101DB8002B44236107B0BDE8F08F4FF0000958E7C6
:101DC8000A23062163609AE731463846D4F8803101
:101DD8009847002889D04FF0000ABFE74FF0020B60
:101DE80065E71CF4006FA8D001330AF1010AB9F1C4
:101DF800000FA7D0A36009F1FF39A3E7236803F414
:101E0800C062B2F5007F7FF475AF43F4807323603E
:101E180010236360A3685A1EA260002B3FF46AAFC8
:101E280058E762469BE7009EDF07326802F104012B
:101E380003D5316013681880B2E7009B19601368F6
:101E48001860ADE70120B5E7D8ED00082D26000899
:101E5800710E00080800010800207047024A034973
:101E6800034800F0EFB900BF50000020BD21000872
:101E7800040000200C4B416810B59942044601D07B
:101E880000F098F9A168094B994202D0204600F069
:101E980091F9E168064B994204D02046BDE810400C
:101EA80000F088B910BD00BF340500209C05002053
:101EB80004060020002070472DE9F843002504237C
:101EC800294C2A490822C4F8381104F15C00294633
:101ED800DFF89C90DFF89C80274F284EC4E9033533
:101EE800C4E90055C4E90555A5606566FEF732FDED
:101EF800234B0822294604F1C4006367C4E9084952
:101F0800C4E90A87C4E91A55C4E91E55266325673A
:101F1800C4F8CC50C4F88050FEF71CFD194B294674
:101F2800C4F8DC30082204F1680304F59670C4F89C
:101F38008830C4E92398C4E92576C4E93455C4E94E
:101F48003855C4F8D850C4F83451C4F8E850FEF7EE
:101F580001FD04F1D003C4E93D98C4E93F76C4F813
:101F6800F030BDE8F88300BF34050020651E000886
:101F78008D160008B5160008F51600081917000890
:101F88000900010012000200F8B5254B0646D3F8F7
:101F98003831002B3CD0234FD7E90134013B04D51D
:101FA8001DE05A1C04F1680419D0B4F90C50013B27
:101FB800002DF6D11C4B08222946C4E90155C4E975
:101FC8000455E36065662560A56104F15C00FEF7D1
:101FD800C1FCC4E90D55C4E912552046F8BD3D6859
:101FE8000DB12F46D8E74FF4D6713046FEF73CFDC9
:101FF800044680B104230560294625460C304FF479
:10200800D072A0606360FEF7A5FC3C602F46C3E772
:10201800FFF752FFBFE70C2338603360DDE700BFEE
:1020280034050020500000200100FFFF036A03B1BF
:102038007047044B044AD3F838310262002BF7D1B9
:102048003AE700BF340500207D1E0008704700BF36
:10205800704700BF0020024A024900F0F3B800BFF1
:1020680050000020611E00080020024A024900F0CA
:10207800E9B800BF50000020BD1E0008002238B596
:10208800064D044608462A6001F07AFC431C00D03D
:1020980038BD2B68002BFBD0236038BD70060020AC
:1020A800F8B5B1F90C300C461E07074639D44A6812
:1020B800002A53DDE56A002D31D000223E683A60DF
:1020C80013F48052216A55D101233846A847451C8C
:1020D800024663D0B4F90C30E56A216A580705D581
:1020E8006368D21A636B0BB1236CD21A002338468B
:1020F800A847421C40D00022236962602360A3895C
:10210800DB0400D56065616B3E6041B104F14403B6
:10211800994202D03846FEF727FD0023636300206A
:10212800F8BD0E69002EFAD09B0718BF00230D6872
:1021380008BF4B690E60AD1B8B600CE02B46324626
:10214800D4F828C03846216AE047B0F1000CA5EB66
:102158000C05664406DD002DF0DCE0E70A6C002A79
:10216800A8DCDCE7B4F90C3043F040034FF0FF3053
:10217800A381F8BD626DB1E73968B4F90C301D2947
:10218800F2D80B4ACA40D507EED500226260226910
:102198002260DA04B7D50029B4D0B4E73B68002B35
:1021A80098D01D2B01D0162BDCD13E60B7E700BFBD
:1021B800010040200B69B3B110B5044682B008B1E4
:1021C800036A5BB1B1F90C3013B9002002B010BD3D
:1021D800204602B0BDE81040FFF762BF0191FFF74B
:1021E80025FF0199EEE70020704700BFB8B138B568
:1021F8000D4A0369044615682BB10DB12B6A53B11A
:10220800B4F90C300BB9002038BD21462846BDE88A
:102218003840FFF745BF2846FFF708FFF0E7034AB5
:102228000349044800F00EB80000002050000020C8
:10223800BD21000804000020014B1868704700BF4A
:10224800000000202DE9F8434FF0000980460F46B2
:102258001646D6E90154013D10D4A389012B08D9AB
:10226800B4F90E30013304D021464046B84749EA54
:102278000009013D6B1C04F16804EED13668002E9C
:10228800E7D14846BDE8F88338B50C461146002228
:102298008446074D20462A601A46644601F080FBB2
:1022A800431C00D038BD2B68002BFBD0236038BD01
:1022B8007006002070B50D7804465E2D25D04FF0CD
:1022C800000EF446481C002223466EF307026EF304
:1022D8000F226EF3174204F580716EF31F6243F804
:1022E800042B8B42FBD175B18CF00101615500F1D3
:1022F800010E1EF8013C2D2B0FD05D2B0BD01BB10E
:102308001D467046F2E7013870BD4FF0010E4D785A
:10231800F446881CD7E7704670BD90F801C0BCF140
:102328005D0FEDD06545EBDC6E1C0230A21902F89A
:10233800011B131B013B9C45F9DCACEB0503013B7E
:102348006545A8BF00230EF1020EF518D1E700BFBE
:1023580038B50C46114600228446074D20462A60AF
:102368001A46644601F014FB431C00D038BD2B68A4
:10237800002BFBD0236038BD700600202DE9F0410A
:102388000C46496B04F14403994214D0A66B7700BC
:102398003A46FEF743FE054630B300EB0608014611
:1023A80032464046FEF77EFDC4E90D57C4F800806A
:1023B8000020BDE8F0814FF48061FEF755FB98B12D
:1023C8004FF4806194F846206063A16380F8FF238E
:1023D80094F8452000F2FD3380F8FE2394F8442059
:1023E80080F8FD232360E3E74FF0FF30E1E700BF0B
:1023F80070B54C1C2BD00E460546144610B1036A26
:10240800002B4CD0B4F90C3023F020025807A281DD
:1024180006D4D9061BD51B0734D442F00402A28186
:10242800626B6368F6B2AAB1A26B9A4209DD2368AF
:102438005A1E226003F8016C6368013363603046FA
:1024480070BD21462846FFF799FF0028EFD04FF0CE
:10245800FF36F4E7226921682AB18A4203D211F8CB
:10246800012CB2421ED022460320C4E90F130123D7
:1024780004F14405A063656302F8466F3046C4E979
:10248800002370BD21462846FFF794FE0028DED1C0
:10249800B4F90C20A06022F00802A061BDE7FFF7A4
:1024A800C5FDAFE701390133C4E90013C7E700BF31
:1024B80003460A46024908681946FFF799BF00BF54
:1024C8000000002038B50C46114600228446074D0E
:1024D80020462A601A46644601F078FA431C00D068
:1024E80038BD2B68002BFBD0236038BD7006002058
:1024F8002DE9F04707460E46484C304616F801EBE2
:1025080014F80EC01CF0080CF7D1BEF12D0F5AD0EC
:10251800BEF12B0F09BF6446644696F800E0861C9E
:102528004BB9BEF1300F5CD00A234FF0050A99462B
:10253800DFF8EC800AE0102B4AD04FF0FF38B8FBE8
:10254800F3F803FB08FA99466FEA0A0A00252846B9
:1025580005E02CD0012509FB00C016F801EBAEF10F
:10256800300CBCF1090F06D9AEF1410CBCF1190FC2
:102578000BD8AEF1370C634510DDB5F1FF3FECD059
:102588004045E6D94FF0FF35E7E7AEF1610CBCF105
:10259800190F03D8AEF1570C6345EEDC6B1C0BD05A
:1025A80004B140420AB165B91160BDE8F087D4456D
:1025B800D0DD4FF0FF35D0E7222328463B60002AC4
:1025C800F3D0711EF0E796F800E00124861CA7E717
:1025D800BEF1300F11D04FF00F0A6FF070489946D6
:1025E800B4E7337803F0DF03582B0BD008234FF000
:1025F800070A6FF060489946A8E7307800F0DF00D6
:102608005828E8D14FF0100996F801E04FF00F0A6A
:102618006FF070484B46023698E700BFD5EC0008CB
:102628009999991964E700BF8C4600B58646134608
:10263800034A714610685DF804EB624658E700BF2C
:10264800000000208C4600B586461346034A7146B2
:1026580010685DF804EB62464AE700BF00000020FE
:1026680030B5224A21F00043934287B01BD9204A53
:10267800934205D902460B4601F0B4F907B030BDC4
:1026880002AA00F039F800F0030001281FD0022840
:1026980011D018BBDDE90423DDE90201012400940F
:1026A80000F0C2FEEAE7002400220023009400F0B4
:1026B800BBFE07B030BD0124DDE90423DDE90201DA
:1026C800009400F0B1FE01F1004107B030BDDDE932
:1026D8000423DDE9020101F027F8CFE7DDE904234F
:1026E800DDE9020101F020F8EDE700BFFB21E93F39
:1026F800FFFFEF7F000000002DE9F04F844B21F031
:1027080000459D428046894614468FB040F28A8033
:10271800804B0E469D4228D873A3D3E90023002995
:1027280040F39D8101F05EF97B4B06469D420F46C2
:1027380000F089806EA3D3E9002301F053F9024623
:102748000B463046394616461F4601F04BF968A33A
:10275800D3E9002301F046F9C4E900670127C4E979
:10276800020138460FB0BDE8F08F6C4B9D4240F235
:1027780084806B4B9D425DD82F15A7F21647A5EBB9
:102788000751894601F080FD01F07AFA02460B46AE
:1027980040464946CDE9082301F024F90022614B5F
:1027A80001F0D8FA8946804601F06EFD01F068FA1A
:1027B80002460B4640464946CDE90A2301F012F984
:1027C8000022584B01F0C6FA03254FF000084FF0DD
:1027D8000009CDE90C010DF1380A42467AE90201F7
:1027E8004B46AB46013D01F01DFD0028F5D1022501
:1027F8004D493A4601915B46214608A8009500F0EC
:1028080081F9002E0746ACDA60682268E16800F1B9
:102818000043C4E90023A26801F10043C4E902238C
:102828007F429EE700220023C4E90089C4E902230D
:10283800002796E702460B4601F0D4F8C4E90201E6
:10284800C4E90001F4E72CA3D3E9002301F0CAF896
:102858002BA3D3E900238046894601F0C3F8064636
:102868000F4632463B464046494601F0BBF824A392
:10287800D3E9002301F0B6F86EE701F07DF822A352
:10288800D3E900238046894601F064FA0022274BE9
:1028980001F0AAF801F0F8FC074601F0F1F9024648
:1028A8000B46CDE9042310A3D3E9002301F052FA23
:1028B80002460B464046494601F094F80CA3D3E97A
:1028C800002382468B46DDE9040101F043FA1F2FFD
:1028D800CDE902012EDC164B7A1E53F82230AB42AA
:1028E80028D002460B4699E000004054FB21F93FEE
:1028F8003163621A61B4D03D0000601A61B4D03D02
:102908007370032E8A19A33B83C8C96D305FE43FF7
:10291800FB21E93F7BD90240FB21F93FFB213941EB
:10292800FFFFEF7F0000704164EE00080000E03F09
:10293800E4ED0008DDE902235046594601F052F85B
:102948002B150793C1F30A53C3EB1553102B80467D
:10295800894669DD60A3D3E90023DDE9040101F0BC
:10296800F9F98046894642464B465046594601F099
:1029780039F802460B465046594692469B4601F0A6
:1029880031F842464B4601F02DF855A3D3E9002310
:1029980080468946DDE9040101F0DCF942464B46F0
:1029A80001F020F802460B4650465946CDE902236D
:1029B80001F018F8079AC1F30A53D31A312B80464D
:1029C800894631DD48A3D3E90023DDE9040101F09C
:1029D800C1F98046894642464B465046594601F061
:1029E80001F802460B465046594692469B4600F06F
:1029F800F9FF42464B4600F0F5FF3DA3D3E900231B
:102A080080468946DDE9040101F0A4F942464B46B7
:102A180000F0E8FF02460B46CDE90223504659462E
:102A280000F0E0FF8046894642464B4650465946EC
:102A3800C4E9008900F0D6FFDDE9022300F0D2FFE7
:102A4800002EC4E90201BFF68CAE09F10042C4E9C8
:102A5800008201F10042C4E902027F4281E600F0EF
:102A6800C3FF274B06469D420F4618D022A3D3E941
:102A7800002300F0B9FF02460B4630463946164699
:102A88001F4600F0AFFF1CA3D3E9002300F0ACFF02
:102A9800C4E90067C4E902014FF0FF3761E60EA3FD
:102AA800D3E9002300F0A0FF0DA3D3E9002380465B
:102AB800894600F099FF06460F4632463B46404697
:102AC800494600F08FFF06A3D3E9002300F08CFFEE
:102AD800DEE700BFAFF300800000601A61B4D03DAC
:102AE8007370032E8A19A33B0000002E8A19A33B9A
:102AF800C14920259A837B393163621A61B4D03D7C
:102B0800FB21F93F2DE9F04FADF51B7DBD4CA49D90
:102B18009C4654F82540013B12F1140F8146059458
:102B28000C910393C0F2A882B749D31E81FB03011D
:102B3800DB17C3EBA10307930133A3EB8303DB008C
:102B4800D318079A0D930CF1FF33D61A059A12EB96
:102B580003081CD408F1010800240025E346DDF829
:102B680094A2B04422AF08E05AF8260001F088F891
:102B780001364645E7E8020108D0002EF4DA20467F
:102B8800294601364645E7E80201F6D1DC46059BB1
:102B9800002BA9F108030493B8BF4FEACC0637DB32
:102BA800DDF80C9003EBCC084B460DF5E47BD946D9
:102BB8009B4622AA02EBCC0A059A4FEACC0662444D
:102BC8000192CDF808C00696039B002BC0F29A81AB
:102BD800574600240025049E77E90223F6E90201FE
:102BE80001F0B8F802460B462046294600F0FCFEE4
:102BF800464504460D46EFD1019B0BF1010B9B4561
:102C0800E9E802450AF1080ADED1DDF808C0069EA7
:102C1800059A049B934603EB060A0EAB03EB82036B
:102C2800043B08930EAB03EB8206CDE909A60D9F82
:102C3800CDF82CC09AAB4FEACB0203EBCB03BBF128
:102C4800000F019253E928452BDD0DF5E47A0DF1CB
:102C580038090AEB0208029700226C4B20462946E5
:102C680001F078F801F010FB01F00AF80022684B37
:102C780006460F4601F06EF802460B4620462946E6
:102C880000F0B0FE01F000FB78E9022349F8040BDC
:102C98003946304600F0A8FED04504460D46DBD143
:102CA800029F204629463A4600F03EFB00224FF09C
:102CB8007F5304460D4601F04DF800F0B1FC0022A8
:102CC800544B01F047F802460B462046294600F0CF
:102CD80089FE0D46044601F0D7FA064600F0D0FFFB
:102CE80002460B462046294600F07CFE002F80460F
:102CF800894640F391800BF1FF300EAB53F820303A
:102D0800C7F1180243FA02F101FA02F29B1A0EAA5D
:102D180042F82030C7F1170243FA02F5002D0E449D
:102D280000F3D880002200234046494601F07AFA91
:102D3800002800F05282059B9B450DDD00220EAB5A
:102D48000A9803EB8B0353F8041D834242EA0102FD
:102D5800F9D1002A40F0D980059B0EAA013B52F810
:102D68002330002B40F0CA800123089A52F8041D32
:102D780001330029FAD05B440BF1010807990B9A3B
:102D880008EB010A0AF1804AA5990AF1FF3A5A4468
:102D9800019E01EB8A0A22A901EBC209DDF824B0E1
:102DA80072AA164402930697CDF804A0019B53F823
:102DB800040F019300F064FF039BE9E80201002B74
:102DC8001DDBCA4600240025049F7AE90223F7E99F
:102DD800020100F0BFFF02460B462046294600F0DC
:102DE80003FE5F4504460D46EFD1029B08F101083A
:102DF8004345E6E90245D9DA9B46069F1AE70024CF
:102E08000025F2E770EF0008ABAAAA2A0000703E7E
:102E1800000070410000204053D10BF1FF330EAA8F
:102E280052F82350ED15002D7FF77CAFBBF1000F52
:102E380006F1010640F3418200220EAB53F8044B21
:102E4800002C3AD0C4F180746FF07F4043F8044CF2
:102E580003E01968411A43F8041B01329345F8DC72
:102E68000124002F0DDD012F3DD0022F09D10BF1D8
:102E7800FF320EAB53F822300EA9C3F3150341F805
:102E88002230022D7FF44EAF42464B4600208F4938
:102E980000F0A8FD80468946002C3FF443AF3A462F
:102EA80000208A4900F040FA02460B46404649464F
:102EB80000F098FD8046894634E701329345BDDC31
:102EC800CFE70022824B01F0CBF9002840F0C28006
:102ED800054627E7BBF1000FD8BF002406F101061D
:102EE800AADC012FC1D10BF1FF320EAB53F822300F
:102EF8000EA9C3F3160341F82230C2E70BF101080B
:102F080043463BE70024002576E60D9B0BF1FF3492
:102F1800A3F118020EAB53F82430069604950D92CF
:102F280063B90BF18043013B0EA901EB830353F80E
:102F3800041D013C183A0029F9D00D9200200D9A81
:102F4800624900F0F1F9002C06460F46C0F2C18133
:102F580004F1010A4FEACA024FF0000893460EAB8B
:102F680003EB8A05DFF86C9172AB03EBCA0A55F8DC
:102F7800040D00F085FE32463B4600F0EBFE4B4662
:102F88006AE9020142463046394600F0E3FE0EABDC
:102F98009D4206460F46EAD15A464FF00009ABF16A
:102FA80008034AA972A800EB030AA3460B46CDE919
:102FB80007425246CA46DDF814900391B9F1000F52
:102FC800C0F281809046002600240025CDE9013218
:102FD800414F01E0564510DCF7E90223F8E8020109
:102FE80000F0B8FE02460B462046294600F0FCFCDD
:102FF8000136B14504460D46ECDADDE901320BF144
:10300800FF3BBBF1FF3FE3E802450AF1010AA2F1E9
:103018000802D3D1DDE90742A49B022B5EDC002B1A
:103028002FDC10D100200021039DAC1874E9022385
:1030380000F0DAFCAC42F9D1049B002B40F0398156
:103048000C9BC3E90001069B03F007000DF51B7DEF
:10305800BDE8F08FBBF1000FC8BF022506F10106DD
:103068003FF7EAAE42464B460020184900F0BAFC4A
:1030780002258046894655E600216FF0170307911F
:103088005EE5039B0026002798469D18304675E9A3
:103098000223394600F0A8FC454506460F46F5D1FF
:1030A8000B460246DDE94A0100F09CFC049B002B1C
:1030B80000F0E2800C9D07F10042C5E90062002C97
:1030C80040F0DE80E8E00024002598E70000F03FAB
:1030D8000000E03F0000703E78EF0008A49B032B3F
:1030E800B1D1002C00F00581039B4FEAC40803EB23
:1030F800C405A946D5E9006701950294059559E9E3
:1031080002453046394622462B4600F06DFCB24651
:10311800BB4606460F4632463B462046294600F047
:1031280061FC5B46524600F05FFCC9E9000169E9B1
:103138000267039B9945E2D1029C059D012C00F092
:10314800D880D5E90045039BDDF8049003F1080B0E
:10315800CDF80480D84659E9026720462946324608
:103168003B4600F041FCA246AB4604460D462246CB
:103178002B463046394600F035FC52465B4600F097
:1031880033FCC9E9000169E90245C845E3D10020DB
:103198000021DDF80480039B08F108041C4403F1B6
:1031A800100574E9022300F01FFCA542F9D1DDE9FE
:1031B8004A56039BD3E90278049B002B46D10C9B0B
:1031C800C3E90401C3E90056C3E90278069B03F08A
:1031D80007000DF51B7DBDE8F08F06960D9E404655
:1031E80049467242049500F09FF800224B4B5F4617
:1031F8008046894601F034F8F8B10022484B404631
:10320800494600F0A7FD01F03FF8054600F038FDFB
:103218000022424B00F09EFD0B46024649464046BE
:1032280000F0E0FB01F030F87C1C0EAB183643F8D8
:103238002B000D9643F8245080E64046494601F09D
:1032480023F80EAB5C4643F82B0077E60C9B2C4624
:1032580006F100455D601D461C6008F10043C5E9A4
:103268000273069B01F10042C5E9040203F007005E
:103278000DF51B7DBDE8F08F0C9BC3E9006774B1A9
:103288000125DDF80C800135F8E9022300F0ACFBDC
:10329800AC42F8DA049B13B101F1004319460C9BC8
:1032A800C3E90201069B03F007000DF51B7DBDE88D
:1032B800F08F01F100431946C2E6022D7FF432ADCA
:1032C80002460B460020174900F08CFB80468946D1
:1032D80028E5A49B022B06DC002B0DDC7FF4B3AEA3
:1032E80000200021A8E6A49B032B7FF4ACAE4AABD8
:1032F8000393002000215AE7049BDDE94A0133B11A
:1033080000224FF000430C9CC4E90023C4E70022CC
:1033180000230C9CC4E90023C1E700BF00007041F2
:103328000000703E0000F03F2DE9F0411646C1F361
:103338000A52074688460B466ABB21F000430343FE
:1033480027D0334B002200F005FD324B07469E4242
:1033580088463CDB0B46C1F30A52363A4CF25031F0
:103368008E4221DC164440F2FE7296421CDC002E8E
:1033780026DC16F1350F31DB23F0FF4121F4E001A3
:10338800363641EA0655002238462946224B00F0D7
:10339800E1FCBDE8F08140F2FF7C6245DED10246E7
:1033A80000F022FBBDE8F081454615A3D3E90023D0
:1033B80063F31E052946194800F0CCFCBDE8F081EE
:1033C8006FF31E53384643EA0651BDE8F0810EA359
:1033D800D3E9002300F0BEFCBDE8F08108F000440A
:1033E80044F0D27141F4B73107A3D3E900230C4864
:1033F80041F01F0100F0AEFCCBE700BFAFF3008047
:103408009C7500883CE4377E59F3F8C21F6EA5010D
:1034180000005043B03CFFFF0000903C9C750088C2
:1034280059F3F8C2000000002DE9F04F83B0CDE950
:10343800002321F00043B3F1795F04460D4604D21E
:1034480000F022FF002800F0858022462B46204607
:10345800294600F07FFC06460F4632463B4620468A
:10346800294600F077FC3EA3D3E9002382468B4629
:103478003046394600F06EFC3BA3D3E9002300F048
:10348800B1FA32463B4600F065FC39A3D3E9002384
:1034980000F0AAFA32463B4600F05CFC36A3D3E9BA
:1034A800002300F09FFA32463B4600F053FC34A359
:1034B800D3E9002300F098FA0C9B804689469BB319
:1034C800DDE900010022324B00F044FC42464B4645
:1034D800804689465046594600F03CFC02460B4659
:1034E8004046494600F07EFA32463B4600F032FC40
:1034F800DDE9002300F076FA23A3D3E9002306468A
:103508000F465046594600F025FC02460B46304609
:10351800394600F069FA02460B462046294600F073
:1035280061FA03B0BDE8F08F02460B4630463946D3
:1035380000F010FC14A3D3E9002300F053FA52461C
:103548005B4600F007FC22462B4600F04DFA03B01C
:10355800BDE8F08F2046294603B0BDE8F08F00BFD4
:103568007CD5CF5A3AD9E53DEB9C2B8AE6E55A3E05
:103578007DFEB157E31DC73ED561C119A0012A3FA1
:10358800A6F810111111813F495555555555C53F9C
:103598000000E03F1F4A21F0004393421BD930B599
:1035A8001D4A87B0934205D902460B4600F01AFA25
:1035B80007B030BD02AAFFF79FF800F0030001280A
:1035C80017D002280BD0E0B9DDE90423DDE90201B8
:1035D80000F0AAF8ECE70022002300F0A5B8DDE926
:1035E8000423DDE9020100F09FF801F1004107B072
:1035F80030BD0090DDE90423DDE90201FFF714FF87
:10360800F3E70124DDE90423DDE902010094FFF773
:103618000BFFCDE7FB21E93FFFFFEF7F0000000034
:10362800C1F30A5C2DE9F041ACF2FF35132D0246D7
:103638000B460C46064632DC002D20DBDFF8E08026
:103648000F4648FA05F801EA080C5CEA000C2BD092
:1036580031A3D3E9002300F0C7F90022002300F0CA
:1036680009FE40B1002C03DA4FF480132B411F44AC
:10367800002627EA080421463046BDE8F08126A343
:10368800D3E9002300F0B0F90022002300F0F2FD96
:103698000028F0D0002C27DB00263446EBE7332D3A
:1036A80006DDB5F5806F1CD010461946BDE8F081DF
:1036B8004FF0FF37ACF2134C27FA0CF70742F3D060
:1036C80015A3D3E9002300F08FF90022002300F0AE
:1036D800D1FD0028CFD0002C33460CDB23EA0706A7
:1036E800C9E700F081F9E1E724F0004426430DD151
:1036F8004FF00044BFE7142D06D00122C5F1340570
:10370800AA401344B342E9D20134E7E70026054C46
:10371800B1E700BFAFF300809C7500883CE4377EBA
:10372800FFFF0F000000F0BF2DE9F04F21F0004827
:10373800B8F1795F06460F4692469B4685B06DD232
:1037480000F0A2FD002800F0ED8032463B463046EE
:10375800394600F0FFFA76A3D3E9002304460D4664
:1037680000F0F8FA74A3D3E9002300F03DF92246EB
:103778002B4600F0EFFA72A3D3E9002300F032F9E8
:1037880022462B4600F0E6FA6FA3D3E9002300F0A7
:103798002BF922462B4600F0DDFA6DA3D3E900236E
:1037A80000F020F922462B4600F0D4FA6AA3D3E9A8
:1037B800002300F019F922462B4600F0CBFACDE998
:1037C8000001002220462946654B00F0C3FADDE9D6
:1037D8000023804689462046294600F0BBFA444625
:1037E8004D468046894652465B463046394600F08B
:1037F800B1FA02460B464046494600F0F3F8024645
:103808000B462046294600F0EDF802460B460020FC
:10381800544900F0E7F805B0BDE8F08F02460B46C2
:1038280000F098FA42A3D3E9002304460D4600F0BD
:1038380091FA41A3D3E9002300F0D6F822462B469B
:1038480000F088FA3EA3D3E9002300F0CBF8224623
:103858002B4600F07FFA3CA3D3E9002300F0C4F81C
:1038680022462B4600F076FA39A3D3E9002300F06C
:10387800B9F822462B4600F06DFA37A3D3E90023A6
:1038880000F0B2F82B46224600F064FA364BCDE938
:103898000001984595D9354B002298453AD8A8F5A6
:1038A800001300202F499046994600F09BF8CDE977
:1038B8000201002220462946294B00F04BFA4246D5
:1038C8004B4600F08FF8DDE9002380468946204604
:1038D800294600F03FFA44464D46804689465246FE
:1038E8005B463046394600F035FA02460B464046FC
:1038F800494600F077F802460B462046294600F074
:1039080071F802460B46DDE9020100F06BF805B0DC
:10391800BDE8F08F164B4FF00008CDE90223DFF821
:103928005490C6E700200F4905B0BDE8F08F00BFEE
:10393800D43888BEE9FAA8BDC4B1B4BD9EEE213E14
:10394800AD529C804F7E923E9015CB19A001FA3E55
:103958007751C1166CC1563F4C5555555555A53F25
:103968000000E03F0000F03F3233D33F0000E93F62
:103978000000E73F0000D23F21F00043194670479E
:103988005822024B4FF0FF301A6070477006002033
:103998005822024B4FF0FF301A6070477006002023
:1039A8005822024B4FF0FF301A6070477006002013
:1039B800044A05491368002B08BF0B4618441060D9
:1039C8001846704774060020E07000205822024B09
:1039D8004FF0FF301A6070477006002081F00041F8
:1039E80002E000BF83F0004330B54FEA41044FEADC
:1039F800430594EA050F08BF90EA020F1FBF54EA77
:103A0800000C55EA020C7FEA645C7FEA655C00F012
:103A1800E2804FEA5454D4EB5555B8BF6D420CDDE3
:103A28002C4480EA020281EA030382EA000083EA66
:103A3800010180EA020281EA0303362D88BF30BD06
:103A480011F0004F4FEA01314FF4801C4CEA11315C
:103A580002D0404261EB410113F0004F4FEA0333BB
:103A68004CEA133302D0524263EB430394EA050F46
:103A780000F0A780A4F10104D5F1200E0DDB02FAB5
:103A88000EFC22FA05F2801841F1000103FA0EF249
:103A9800801843FA05F359410EE0A5F120050EF10F
:103AA800200E012A03FA0EFC28BF4CF0020C43FA40
:103AB80005F3C01851EBE37101F0004507D54FF04D
:103AC800000EDCF1000C7EEB00006EEB0101B1F59D
:103AD800801F1BD3B1F5001F0CD349085FEA3000E3
:103AE8004FEA3C0C04F101044FEA445212F5800FEE
:103AF80080F09A80BCF1004F08BF5FEA500C50F18B
:103B0800000041EB045141EA050130BD5FEA4C0C6D
:103B1800404141EB0101013C28BFB1F5801FE9D2CA
:103B280091F0000F04BF01460020B1FA81F308BFED
:103B38002033A3F10B03B3F120020CDA0C3208DDB9
:103B480002F1140CC2F10C0201FA0CF021FA02F194
:103B58000CE002F11402D8BFC2F1200C01FA02F104
:103B680020FA0CFCDCBF41EA0C019040E41AA2BF29
:103B780001EB0451294330BD6FEA04041F3C1CDAF1
:103B88000C340EDC04F11404C4F1200220FA04F011
:103B980001FA02F340EA030021FA04F345EA0301BB
:103BA80030BDC4F10C04C4F1200220FA02F001FA7D
:103BB80004F340EA0300294630BD21FA04F02946FF
:103BC80030BD94F0000F83F4801306BF81F4801198
:103BD8000134013D4EE77FEA645C18BF7FEA655C0B
:103BE80029D094EA050F08BF90EA020F05D054EADD
:103BF800000C04BF1946104630BD91EA030F1EBFE2
:103C08000021002030BD5FEA545C05D140004941E5
:103C180028BF41F0004130BD14F580043CBF01F5D8
:103C2800801130BD01F0004545F0FE4141F47001BE
:103C38004FF0000030BD7FEA645C1ABF1946104699
:103C48007FEA655C1CBF0B46024650EA013406BF9A
:103C580052EA033591EA030F41F4002130BD00BF59
:103C680090F0000F04BF0021704730B54FF4806416
:103C780004F132044FF000054FF0000150E700BF97
:103C880090F0000F04BF0021704730B54FF48064F6
:103C980004F1320410F0004548BF40424FF00001E3
:103CA8003EE700BF42004FEAE2014FEA31014FEA26
:103CB80002701FBF12F07F4393F07F4F81F0605175
:103CC800704732F07F4208BF704793F07F4F04BFC0
:103CD80041F40021704730B54FF4607401F000459D
:103CE80021F000411CE700BF50EA010208BF7047FD
:103CF80030B54FF000050AE050EA010208BF7047EE
:103D080030B511F0004502D5404261EB41014FF456
:103D1800806404F132045FEA915C3FF4D8AE4FF05E
:103D280003025FEADC0C18BF03325FEADC0C18BF41
:103D3800033202EBDC02C2F1200300FA03FC20FA92
:103D480002F001FA03FE40EA0E0021FA02F11444DF
:103D5800BDE600BF70B54FF0FF0C4CF4E06C1CEAF8
:103D680011541DBF1CEA135594EA0C0F95EA0C0F69
:103D780000F0DEF82C4481EA030621EA4C5123EADC
:103D88004C5350EA013518BF52EA033541F480110B
:103D980043F4801338D0A0FB02CE4FF00005E1FBBE
:103DA80002E506F00042E0FB03E54FF00006E1FB08
:103DB80003569CF0000F18BF4EF0010EA4F1FF044B
:103DC800B6F5007F64F5407404D25FEA4E0E6D418B
:103DD80046EB060642EAC62141EA55514FEAC5209C
:103DE80040EA5E504FEACE2EB4F1FD0C88BFBCF518
:103DF800E06F1ED8BEF1004F08BF5FEA500E50F1C9
:103E0800000041EB045170BD06F0004646EA01018E
:103E180040EA020081EA0301B4EB5C04C2BFD4EBC0
:103E28000C0541EA045170BD41F480114FF0000EB9
:103E3800013C00F3AB8014F1360FDEBF002001F027
:103E4800004170BDC4F10004203C35DA0C341BDCA1
:103E580004F11404C4F1200500FA05F320FA04F073
:103E680001FA05F240EA020001F0004221F00041A7
:103E780010EBD37021FA04F642EB06015EEA430E1A
:103E880008BF20EAD37070BDC4F10C04C4F120054A
:103E980000FA04F320FA05F001FA04F240EA0200FD
:103EA80001F0004110EBD37041F100015EEA430ECE
:103EB80008BF20EAD37070BDC4F1200500FA05F2EE
:103EC8004EEA020E20FA04F301FA05F243EA02036D
:103ED80021FA04F001F0004121FA04F220EA02007C
:103EE80000EBD3705EEA430E08BF20EAD37070BDC2
:103EF80094F0000F0FD101F00046400041EB0101A2
:103F080011F4801F08BF013CF7D041EA060195F083
:103F1800000F18BF704703F00046520043EB03033D
:103F280013F4801F08BF013DF7D043EA060370472A
:103F380094EA0C0F0CEA135518BF95EA0C0F0CD035
:103F480050EA410618BF52EA4306D1D181EA03017B
:103F580001F000414FF0000070BD50EA410606BF75
:103F68001046194652EA430619D094EA0C0F02D1BA
:103F780050EA013613D195EA0C0F05D152EA0336FF
:103F88001CBF104619460AD181EA030101F000411D
:103F980041F0FE4141F470014FF0000070BD41F066
:103FA800FE4141F4780170BD70B54FF0FF0C4CF440
:103FB800E06C1CEA11541DBF1CEA135594EA0C0F5F
:103FC80095EA0C0F00F0A7F8A4EB050481EA030EAC
:103FD80052EA03354FEA013100F088804FEA033393
:103FE8004FF0805545EA131343EA12634FEA022261
:103FF80045EA111545EA10654FEA00260EF0004122
:104008009D4208BF964244F1FD0404F5407402D273
:104018005B084FEA3202B61A65EB03055B084FEA04
:1040280032024FF480104FF4002CB6EB020E75EB01
:10403800030E22BFB61A754640EA0C005B084FEA29
:104048003202B6EB020E75EB030E22BFB61A7546A6
:1040580040EA5C005B084FEA3202B6EB020E75EBF1
:10406800030E22BFB61A754640EA9C005B084FEA69
:104078003202B6EB020E75EB030E22BFB61A754676
:1040880040EADC0055EA060E18D04FEA051545EA65
:1040980016754FEA06164FEAC30343EA52734FEA0E
:1040A800C2025FEA1C1CC0D111F4801F0BD141EA87
:1040B80000014FF000004FF0004CB6E711F4801FEC
:1040C80004BF01430020B4F1FD0C88BFBCF5E06FCC
:1040D8003FF6AFAEB5EB030C04BFB6EB020C5FEADC
:1040E800500C50F1000041EB045170BD0EF0004E31
:1040F8004EEA113114EB5C04C2BFD4EB0C0541EA63
:10410800045170BD41F480114FF0000E013C90E65F
:1041180045EA060E8DE60CEA135594EA0C0F08BF23
:1041280095EA0C0F3FF43BAF94EA0C0F0AD150EA22
:1041380001347FF434AF95EA0C0F7FF425AF1046B5
:1041480019462CE795EA0C0F06D152EA03353FF4DD
:10415800FDAE1046194622E750EA410618BF52EA5A
:1041680043067FF4C5AE50EA41047FF40DAF52EA2E
:1041780043057FF4EBAE12E74FF0FF3C06E000BFCB
:104188004FF0010C02E000BF4FF0010C4DF804CDD8
:104198004FEA410C7FEA6C5C4FEA430C18BF7FEA98
:1041A8006C5C1BD001B050EA410C0CBF52EA430CC6
:1041B80091EA030F02BF90EA020F0020704710F146
:1041C800000F91EA030F58BF994208BF90422CBFD5
:1041D800D8176FEAE37040F0010070474FEA410CCE
:1041E8007FEA6C5C02D150EA013C07D14FEA430CEC
:1041F8007FEA6C5CD6D152EA033CD3D05DF8040B5D
:10420800704700BF8446104662468C46194663468E
:1042180000E000BF01B5FFF7B7FF002848BF10F165
:10422800000F01BD4DF808EDFFF7F4FF0CBF0120AA
:1042380000205DF808FB00BF4DF808EDFFF7EAFF26
:1042480034BF012000205DF808FB00BF4DF808EDE1
:10425800FFF7E0FF94BF012000205DF808FB00BFD6
:104268004DF808EDFFF7CEFF94BF012000205DF860
:1042780008FB00BF4DF808EDFFF7C4FF34BF01206D
:1042880000205DF808FB00BF4FEA410212F500125A
:1042980015D211D56FF47873B3EB625212D94FEA85
:1042A800C12343F0004343EA505311F0004F23FA6F
:1042B80002F018BF404270474FF00000704750EAC4
:1042C800013005D111F0004008BF6FF00040704781
:1042D8004FF00000704700BF4FEA4102B2F1E043DF
:1042E80024BFB3F5001CDCF1FE5C0DD901F0004CD5
:1042F8004FEAC0024CEA5070B2F1004F40EB830025
:1043080008BF20F00100704711F0804F21D113F150
:104318003872BCBF01F00040704741F480114FEA89
:104328005252C2F11802C2F1200C10FA0CF320FA12
:1043380002F018BF40F001004FEAC1234FEAD3232F
:1043480003FA0CFC40EA0C0023FA02F34FEA430399
:10435800CCE77FEA625307D150EA01331EBF4FF022
:10436800FE4040F44000704701F0004040F0FE403D
:1043780040F40000704700BF80F0004002E000BF3A
:1043880081F0004142001FBF5FEA410392EA030F38
:104398007FEA226C7FEA236C6AD04FEA1262D2EB82
:1043A8001363C1BFD218414048404140B8BF5B4287
:1043B800192B88BF704710F0004F40F4000020F020
:1043C8007F4018BF404211F0004F41F4000121F036
:1043D8007F4118BF494292EA030F3FD0A2F1010280
:1043E80041FA03FC10EB0C00C3F1200301FA03F1BE
:1043F80000F0004302D5494260EB4000B0F5000FE1
:1044080013D3B0F1807F06D340084FEA310102F19F
:104418000102FE2A51D2B1F1004F40EBC25008BF51
:1044280020F0010040EA03007047490040EB00001B
:10443800013A28BFB0F5000FEDD2B0FA80FCACF11C
:10444800080CB2EB0C0200FA0CF0AABF00EBC25049
:1044580052421843BCBFD0401843704792F0000F37
:1044680081F4000106BF80F400000132013BB5E78A
:104478004FEA41037FEA226C18BF7FEA236C21D000
:1044880092EA030F04D092F0000F08BF0846704765
:1044980090EA010F1CBF0020704712F07F4F04D133
:1044A800400028BF40F00040704712F100723CBF46
:1044B80000F50000704700F0004343F0FE4040F470
:1044C800000070477FEA226216BF08467FEA23632E
:1044D8000146420206BF5FEA412390EA010F40F419
:1044E800800070474FF0000304E000BF10F0004365
:1044F80048BF40425FEA000C08BF704743F096434C
:1045080001464FF000001CE050EA010208BF704766
:104518004FF000030AE000BF50EA010208BF7047ED
:1045280011F0004302D5404261EB41015FEA010C02
:1045380002BF84460146002043F0B64308BFA3F1FA
:104548008053A3F50003BCFA8CF2083AA3EBC253DC
:1045580010DB01FA02FC634400FA02FCC2F12002FB
:10456800BCF1004F20FA02F243EB020008BF20F032
:104578000100704702F1200201FA02FCC2F1200298
:1045880050EA4C0021FA02F243EB020008BF20EA8D
:10459800DC7070474FF0FF0C1CEAD0521EBF1CEABB
:1045A800D15392EA0C0F93EA0C0F6FD01A4480EAA9
:1045B800010C400218BF5FEA41211ED04FF0006392
:1045C80043EA501043EA5111A0FB01310CF00040BE
:1045D800B1F5000F3EBF490041EAD3715B0040EAE4
:1045E800010062F17F02FD2A1DD8B3F1004F40EBB4
:1045F800C25008BF20F00100704790F0000F0CF087
:10460800004C08BF49024CEA502040EA51207F3A4A
:10461800C2BFD2F1FF0340EAC250704740F4000025
:104628004FF00003013A5DDC12F1190FDCBF00F016
:1046380000407047C2F10002410021FA02F1C2F1C4
:10464800200200FA02FC5FEA310040F1000053EA60
:104658004C0308BF20EADC70704792F0000F00F0AE
:10466800004C02BF400010F4000F013AF9D040EAB4
:104678000C0093F0000F01F0004C02BF490011F448
:10468800000F013BF9D041EA0C018FE70CEAD15346
:1046980092EA0C0F18BF93EA0C0F0AD030F0004CC6
:1046A80018BF31F0004CD8D180EA010000F000407A
:1046B800704790F0000F17BF90F0004F084691F038
:1046C800000F91F0004F14D092EA0C0F01D1420272
:1046D8000FD193EA0C0F03D14B0218BF084608D13B
:1046E80080EA010000F0004040F0FE4040F4000085
:1046F800704740F0FE4040F4400070474FF0FF0C18
:104708001CEAD0521EBF1CEAD15392EA0C0F93EA5E
:104718000C0F69D0A2EB030280EA010C49024FEAB0
:10472800402037D04FF0805343EA111143EA101369
:104738000CF000408B4238BF5B0042F17D024FF421
:10474800000C8B4224BF5B1A40EA0C00B3EB510FFC
:1047580024BFA3EB510340EA5C00B3EB910F24BFE5
:10476800A3EB910340EA9C00B3EBD10F24BFA3EB6A
:10477800D10340EADC001B0118BF5FEA1C1CE0D132
:10478800FD2A3FF650AF8B4240EBC25008BF20F0E5
:10479800010070470CF0004C4CEA50207F32C2BF39
:1047A800D2F1FF0340EAC250704740F400004FF0D6
:1047B8000003013A37E792F0000F00F0004C02BF07
:1047C800400010F4000F013AF9D040EA0C0093F0D1
:1047D800000F01F0004C02BF490011F4000F013B2B
:1047E800F9D041EA0C0195E70CEAD15392EA0C0F93
:1047F80008D142027FF47DAF93EA0C0F7FF470AFCB
:10480800084676E793EA0C0F04D14B023FF44CAF0D
:1048180008466EE730F0004C18BF31F0004CCAD1A2
:1048280030F000427FF45CAF31F000437FF43CAFDE
:104838005FE700BF4FF0FF3C06E000BF4FF0010C00
:1048480002E000BF4FF0010C4DF804CD4FEA4002E2
:104858004FEA41037FEA226C18BF7FEA236C11D02C
:1048680001B052EA530C18BF90EA010F58BFB2EBDF
:10487800030088BFC81738BF6FEAE17018BF40F05F
:10488800010070477FEA226C02D15FEA402C05D113
:104898007FEA236CE4D15FEA412CE1D05DF8040B98
:1048A800704700BF844608466146FFE70FB5FFF72B
:1048B800C9FF002848BF10F1000F0FBD4DF808EDE3
:1048C800FFF7F4FF0CBF012000205DF808FB00BFD4
:1048D8004DF808EDFFF7EAFF34BF012000205DF82E
:1048E80008FB00BF4DF808EDFFF7E0FF94BF01207B
:1048F80000205DF808FB00BF4DF808EDFFF7D2FF78
:1049080094BF012000205DF808FB00BF4DF808EDBA
:10491800FFF7C8FF34BF012000205DF808FB00BF87
:104928004FEA4002B2F1FE4F0FD34FF09E03B3EBB4
:1049380012620DD94FEA002343F0004310F0004FF4
:1049480023FA02F018BF404270474FF0000070474A
:1049580012F1610F01D1420205D110F0004008BFE9
:104968006FF0004070474FF00000704753B94AB9E4
:10497800002908BF00281CBF4FF0FF314FF0FF305F
:1049880000F066B9ADF1080C6DE904CE00F006F848
:10499800DDF804E0DDE9022304B070472DE9F047B3
:1049A800089D0E4604468E46002B4CD18A429446FA
:1049B800B2FA82F362D953B102FA03FCC3F12002BE
:1049C80001FA03FE20FA02F242EA0E0E9C404FEA78
:1049D8001C47BEFBF7F11FFA8CF607FB11EE01FB33
:1049E80006F0220C42EA0E4290420AD91CEB02025F
:1049F80001F1FF3E80F00E81904240F20B810239B6
:104A08006244121AB2FBF7F007FB102200FB06F60D
:104A1800A4B244EA0244A6420AD91CEB040400F1F9
:104A2800FF3280F0F980A64240F2F68064440238F2
:104A380040EA01400021A41B1DB1DC400023C5E968
:104A48000043BDE8F0878B4205D90DB1C5E90001E7
:104A580000210846F5E7B3FA83F1002942D1B342B1
:104A680002D3824200F2EE80841A66EB0302012030
:104A78009646002DE5D0C5E9004EE2E7002B40F050
:104A88008C80881A0121170C96B2B0FBF7FE07FB41
:104A98001E00220C42EA004206FB0EF0904208D9A2
:104AA8001CEB02020EF1FF3802D2904200F2CC80D9
:104AB800C646121AB2FBF7F007FB102200FB06F6F7
:104AC800A4B244EA0244A64208D91CEB040400F14B
:104AD800FF3202D2A64200F2B2801046A41B40EA7E
:104AE8000E40A9E7C1F120078B4022FA07FC4CEAE7
:104AF800030C26FA07FA4FEA1C48BAFBF8FE06FA36
:104B080001F308FB1EAA1FFA8CF620FA07F400FA34
:104B180001F90EFB06F023431C0C44EA0A44A042A8
:104B280002FA01F20BD91CEB04040EF1FF3A80F0F3
:104B38008480A04240F28180AEF1020E6444241ABF
:104B480098B2B4FBF8F308FB134403FB06F640EAFB
:104B58000444A64208D91CEB040403F1FF3068D2D0
:104B6800A64266D9023B644443EA0E40A41BA0FB5C
:104B780002E6B4427346B04652D34FD05DB1B9EBAA
:104B8800030264EB080404FA07F722FA01F31F434F
:104B9800CC40C5E90074002153E702FA03FCC3F1D5
:104BA8002000C1404FEA1C47B1FBF7FE07FB1E116E
:104BB80024FA00F09E403043020C1FFA8CF642EAB9
:104BC80001420EFB06F1914204FA03F409D91CEBE9
:104BD80002020EF1FF382ED291422CD9AEF1020E0C
:104BE8006244521AB2FBF7F107FB112280B240EA85
:104BF800024001FB06F2824208D91CEB000001F1D9
:104C0800FF3814D2824212D902396044801A41EA2C
:104C18000E413AE77146F4E6104609E7F145ADD290
:104C2800BEEB020366EB0C060138B046A6E7414628
:104C3800ECE7034698E7C646D3E7D6467FE76444E1
:104C480002384BE7084614E7AEF1020E624430E73B
:104C5800704700BF044B0022DA61044A136943F02D
:104C6800010313610180704798170020002002405B
:104C7800194BDB6813F0100305D0184AD36943F0C9
:104C88000203D3611023144AD26812F0040F06D02D
:104C98001249CA6942F00102CA6143F004030E4A8C
:104CA800D26912F0010F09D00C49CA6942F0040216
:104CB800CA610949CA6922F00102CA6140F20112B7
:104CC800934202D0044AD3607047034AD36923F061
:104CD8000103D361704700BF0020024098170020ED
:104CE800074B1B6913F0800F07D0054B054A5A6024
:104CF80002F188325A60002070470120704700BFD7
:104D08000020024023016745034A136943F08003EA
:104D180013610020704700BF0020024038B50446E8
:104D280001F0D6F90546164BDB6813F0010F0AD0DF
:104D3800B4F1FF3FF7D024B101F0CAF9401BA042FB
:104D4800F1D903201BE00E4BDB6813F0200F02D0D3
:104D58000B4B2022DA600A4BDB6813F0100F0BD1E3
:104D6800074BDB6913F0010F06D1054BDB6813F025
:104D7800040F01D1002002E0FFF77AFF012038BDBF
:104D8800002002402DE9F8431E46244B1B7E012BD0
:104D980041D004460F469046204B01221A764CF229
:104DA8005030FFF7BBFF034678BB012C08D0022C1C
:104DB80003D04FF004091C4607E04FF00209FAE758
:104DC8004FF00109F7E70134E4B24C451DD2210147
:104DD800C1F12002A1F1200328FA01F106FA02F23A
:104DE800114326FA03F3194389B207EB4400FFF78E
:104DF80031FF4CF25030FFF791FF094B1D6925F048
:104E080001051D6103460028DDD0044A0021117602
:104E18001846BDE8F8830223FAE700BF9817002078
:104E28000020024082B0084B1B68084AA2FB0323FB
:104E38005B0A00FB03F3019300BF019B5A1E01921A
:104E4800002BF9D102B070475C000020D34D6210EE
:104E580070B582B00446036813F0010F2CD09A4B4A
:104E68005B6803F00C03042B1DD0974B5B6803F0C1
:104E78000C03082B12D06368B3F5803F41D0002B98
:104E880055D103F1804303F504331A6822F48032C4
:104E98001A601A6822F480221A6037E08A4B5B682D
:104EA80013F4803FE7D0884B1B6813F4003F03D00E
:104EB8006368002B00F0AE81236813F0020F75D0F1
:104EC800814B5B6813F00C0F5FD07F4B5B6803F07E
:104ED8000C03082B54D02369002B00F08A807B4BED
:104EE80001221A6001F0F4F80546774B1B6813F0AD
:104EF800020F75D101F0ECF8401B0228F5D9032008
:104F08008DE1714A136843F480331360636843B3D7
:104F180001F0DEF805466C4B1B6813F4003FCBD15B
:104F280001F0D6F8401B6428F5D9032077E1B3F5E2
:104F3800A02F09D0644B1A6822F480321A601A68CC
:104F480022F480221A60E1E703F18043A3F53C33A1
:104F58001A6842F480221A601A6842F480321A6091
:104F6800D4E701F0B5F80546574B1B6813F4003F2A
:104F7800A2D001F0ADF8401B6428F5D903204EE11A
:104F8800514B5B6813F4803FA5D14F4B1B6813F05E
:104F9800020F03D02369012B40F03E814A4A13686F
:104FA80023F0F803616943EAC1031360236813F02F
:104FB800080F33D0A369002B5CD0444B0122C3F8FF
:104FC800802401F085F805463F4B5B6A13F0020F19
:104FD80021D101F07DF8401B0228F5D903201EE1FC
:104FE800394A136823F0F803616943EAC10313607F
:104FF800DCE7364B00221A6001F06AF80546324BAE
:105008001B6813F0020FD1D001F062F8401B022890
:10501800F5D9032003E10120FFF704FF236813F00B
:10502800040F00F09780284BDB6913F0805F34D1C0
:10503800254BDA6942F08052DA61DB6903F080536C
:105048000193019B0125224B1B6813F4807F26D016
:10505800E368012B3ED0002B54D103F1804303F5C4
:1050680004331A6A22F001021A621A6A22F0040250
:105078001A6234E0154B0022C3F8802401F028F8A6
:105088000546114B5B6A13F0020FC7D001F020F8F8
:10509800401B0228F5D90320C1E00025D3E70C4ABC
:1050A800136843F48073136001F012F80646084B46
:1050B8001B6813F4807FCBD101F00AF8801B6428A9
:1050C800F5D90320ABE000BF0010024000004242C7
:1050D80000700040544A136A43F001031362E36806
:1050E80033B300F0F5FF06464F4B1B6A13F0020F6F
:1050F8002FD100F0EDFF801B41F288339842F3D99D
:1051080003208CE0052B09D0474B1A6A22F00102D4
:105118001A621A6A22F004021A62E0E7424B1A6A1B
:1051280042F004021A621A6A42F001021A62D6E7D1
:1051380000F0CEFF06463C4B1B6A13F0020F08D066
:1051480000F0C6FF801B41F288339842F3D9032050
:1051580065E0E5B9E369002B60D0334A526802F094
:105168000C02082A5DD0022B17D0304B00221A6699
:1051780000F0AEFF04462C4B1B6813F0007F47D0AD
:1051880000F0A6FF001B0228F5D9032047E0264AB5
:10519800D36923F08053D361DCE7244B00221A66DD
:1051A80000F096FF0546204B1B6813F0007F06D0E1
:1051B80000F08EFF401B0228F5D903202FE0236A58
:1051C800B3F5803F1AD018494B6823F47413226A48
:1051D800606A024313434B60144B01221A6600F0C5
:1051E80077FF0446104B1B6813F0007F0ED100F0C8
:1051F8006FFF001B0228F5D9032010E00A4A536804
:1052080023F40033A1680B435360DCE7002006E079
:10521800002004E0012002E0012000E0002002B0AC
:1052280070BD0120FBE700BF0010024000004242B1
:1052380086B0174B0FCB0DF1180C0CE90F0040F29C
:105248000123ADF80430134B5B6803F00C02082A05
:1052580002D0114806B07047C3F3834218326A443B
:1052680012F8100C13F4803F0DD00A4B5B68C3F39F
:10527800404318336B4413F8142C074BB3FBF2F379
:1052880003FB00F0E6E7054B03FB00F0E2E700BF95
:10529800C0EF00080010024000127A0000093D002B
:1052A80070B504460D46594B1B6803F007038B4243
:1052B8000BD2564A136823F007030B431360136895
:1052C80003F007038B4240F09A80236813F0020F23
:1052D80006D04F4A536823F0F003A1680B4353608C
:1052E800236813F0010F52D06368012B23D0022BDF
:1052F80028D0474A126812F0020F00F08280444911
:105308004A6822F0030213434B6000F0E1FE0646B0
:105318006368012B1DD0022B2AD03D4B5B6813F02C
:105328000C0F34D000F0D4FE831B41F28832934234
:10533800F3D9032062E0364A126812F4003FDED146
:1053480001205BE0324A126812F0007FD7D10120B9
:1053580054E02F4B5B6803F00C03042B17D000F0CC
:10536800B7FE831B41F288329342F2D9032045E00D
:10537800274B5B6803F00C03082B08D000F0A8FE4D
:10538800801B41F288339842F2D9032036E01F4B44
:105398001B6803F00703AB420AD91C4A136823F0C1
:1053A80007032B431360136803F00703AB422AD1AA
:1053B800236813F0040F06D0154A536823F4E063FA
:1053C800E1680B435360236813F0080F07D0104AB5
:1053D800536823F46053216943EAC1035360FFF71C
:1053E80027FF0B4B5B68C3F303130A4AD35CD8400F
:1053F800094B1860002000F03BFE002070BD012022
:10540800FCE70120FAE70120F8E700BF002002408E
:10541800001002402C0001085C000020014B1868B5
:10542800704700BF5C00002008B5FFF7F7FF044B8A
:105438005B68C3F30223034AD35CD84008BD00BFAE
:10544800001002402400010808B5FFF7E7FF044BED
:105458005B68C3F3C223034AD35CD84008BD00BFCE
:10546800001002402400010830B4036A23F001034D
:105478000362036A4268846924F0730C0C6844EA86
:105488000C0423F0020C8B6843EA0C03114DA8426C
:1054980003D005F50065A84205D123F00803CD68BF
:1054A8002B4323F004030B4DA84203D005F50065F8
:1054B800A84207D122F440724D6945EA020C8A6974
:1054C80042EA0C02426084614A684263036230BC6B
:1054D800704700BF002C014030B4036A23F4807386
:1054E8000362036A4268C46924F0730C0C6844EAD6
:1054F8000C0523F400738C6843EA0423114CA04282
:1055080003D004F50064A04206D123F40063CC68FC
:1055180043EA042323F480630A4CA04203D004F531
:105528000064A04207D122F440524C6942EA0412B6
:105538008C6942EA04124260C5614A68C263036228
:1055480030BC7047002C014030B4036A23F4805308
:105558000362036A4468C26922F4E6420D6842EABB
:10556800052223F400538D6843EA0533094DA84208
:1055780003D005F50065A84204D124F480444D69A0
:1055880044EA85144460C2614A680264036230BC1C
:10559800704700BF002C014010B4036A046A24F06D
:1055A80001040462846924F0F00C4CEA021223F02E
:1055B8000A030B438261036210BC704710B4036A8C
:1055C80023F0100303628469036A24F4704C4CEAE4
:1055D800023223F0A00343EA01138261036210BC84
:1055E800704710B4846824F47F4C42EA03220A43CB
:1055F80042EA0C02826010BC704710B50468A268C9
:1056080022F070024B68134323F007030A681A4319
:10561800A2604B68602B24D009D8402B10D0502BA7
:105628000DD10A6989680068FFF7B6FF07E0702B9B
:1056380005D10B698A68C9680068FFF7D2FF10BDF9
:1056480003681C6A1A6A22F001021A6202689369E6
:1056580023F0F003096943EA0113936103681C62AC
:10566800EDE70A6989680068FFF7A8FFE7E7704770
:10567800022380F83D300268136843F00103136089
:10568800012380F83D3000207047704738B590F806
:105698003C30012B18D00446012580F83C500223E9
:1056A80080F83D30FFF7A9FF2268D36823F0400354
:1056B800D3602268D36823F48043D36084F83D50D4
:1056C800002084F83C0038BD0220FCE70368244A27
:1056D800904212D002F5006290420ED0B0F1804F95
:1056E8000BD0A2F59832904207D002F58062904222
:1056F80003D002F58062904203D123F070034A6818
:105708001343174A904212D002F5006290420ED01D
:10571800B0F1804F0BD0A2F59832904207D002F535
:105728008062904203D002F58062904203D123F454
:105738004073CA68134323F080034A691A4302601E
:105748008B68C3620B688362054B984203D003F5EC
:105758000063984201D10B690363012343617047D9
:10576800002C0140B0B110B5044690F83D3063B14B
:10577800022384F83D30214651F8040BFFF7A6FFB9
:10578800012384F83D30002010BD80F83C30FFF73D
:105798006EFFEDE701207047B0B110B5044690F8F0
:1057A8003D3063B1022384F83D30214651F8040BA3
:1057B800FFF78CFF012384F83D30002010BD80F8EE
:1057C8003C30FFF762FFEDE70120704730B4036A11
:1057D80023F010030362036A4468826922F4E642F4
:1057E8000D6842EA052223F020038D6843EA051379
:1057F800114DA84203D005F50065A84206D123F053
:105808008003CD6843EA051323F040030A4DA842FC
:1058180003D005F50065A84207D124F440644D691A
:1058280044EA85048D6944EA8504446082614A68D3
:105838008263036230BC7047002C014038B590F891
:105848003C30012B66D004460D46012380F83C30DD
:10585800022380F83D300C2A1AD8DFE802F0071935
:105868001919201919193419191947000068FFF76F
:10587800FBFD2268936943F00803936122689369EA
:1058880023F0040393612268936929690B439361A8
:10589800012384F83D30002084F83C0038BD0068BE
:1058A800FFF794FF2268936943F4006393612268C9
:1058B800936923F48063936122689369296943EAB1
:1058C80001239361E4E70068FFF706FE2268D369C5
:1058D80043F00803D3612268D36923F00403D3613A
:1058E8002268D36929690B43D361D1E70068FFF7C0
:1058F8002BFE2268D36943F40063D3612268D3691D
:1059080023F48063D3612268D369296943EA0123B8
:10591800D361BDE70220C1E74FF0010C0CFA01FC8E
:10592800036A23EA0C030362036A8A40134303628F
:105938007047000010B5044601220068FFF7ECFF2D
:105948002368094A934203D002F50062934203D1C7
:105958005A6C42F400425A642268136843F0010307
:105968001360002010BD00BF002C01404FF0040C54
:105978000CFA01FC036A23EA0C030362036A8A40F7
:1059880013430362704710B5044604220068FFF70A
:10599800EDFF2268536C43F4004353642268136894
:1059A80043F001031360002010BD024690F83C301C
:1059B800012B21D0012380F83C30CB6823F44073BD
:1059C8008868034323F480634868034323F400632F
:1059D8000868034323F480530869034323F40053FE
:1059E80048690343896923F440430B4311684B64B6
:1059F800002082F83C0070470220704790F83C2055
:105A0800012A22D030B40346012083F83C00022248
:105A180083F83D201C68626822F0700262601C688E
:105A280062680D682A4362601C68A26822F08002DE
:105A3800A2601C68A26849680A43A26083F83D0016
:105A4800002083F83C0030BC7047022070470000FB
:105A580090F82420012A25D08CB00346012280F832
:105A68002420114A00920268906810F0010F07D1B3
:105A78000D48806810F0010F02D10C48824209D00D
:105A88009A6A42F020029A620120002283F82420B8
:105A98000CB07047506820F47020096801435160C9
:105AA8000020F2E70220704700280140002401404E
:105AB800002808DB0901C9B200F1604000F5614027
:105AC80080F80013704700F00F000901C9B2014BBC
